:020000040800F2
:10000000C0820020490100082917000825140008B3
:1000100025170008C70D0008432100080000000054
:1000200000000000000000000000000009190008A6
:10003000F112000800000000B11700080D190008B7
:100040006301000863010008630100086301000800
:100050006301000863010008F3120008F5120008AC
:100060006301000863010008F7120008630100083B
:1000700063010008630100086301000863010008D0
:1000800063010008630100086301000863010008C0
:1000900063010008630100086301000863010008B0
:1000A00063010008630100086301000863010008A0
:1000B0006301000863010008630100086301000890
:1000C0006301000863010008630100086301000880
:1000D00063010008E11B0008811D0008651E00087F
:1000E0006301000863010008630100086301000860
:1000F0006301000863010008630100086301000850
:10010000630100086301000863010008630100083F
:100110002D1A0008111B0008630100086301000884
:10012000630100086301000863010008630100081F
:10013000DFF810D000F016FB00480047D537000864
:10014000AFF30080C0820020064880470648004781
:10015000FEE7FEE7FEE7FEE7FEE7FEE7FEE7FEE777
:10016000FEE7FEE7251900083101000840EA010317
:100170009B0703D009E008C9121F08C0042AFAD25D
:1001800003E011F8013B00F8013B521EF9D2704721
:10019000D2B201E000F8012B491EFBD270470022C9
:1001A000F6E710B513460A4604461946FFF7F0FF76
:1001B000204610BD80EA010210B502F00043400065
:1001C00022D04A001FD0010E01EB1261C0F356008D
:1001D000C2F3560240F4000042F40002A0FB0220E9
:1001E00000047F39140400D0401C50EA124001D4AE
:1001F0004000491EC2B20C0604EBD010401C40085F
:10020000802A02D003E0002010BD20F00100002968
:1002100000DA0020184310BD30B480EA010202F079
:10022000004530F0004221F0004013D090B1C30DE2
:10023000D40DC2F31601C0F31600E41A41F4000114
:1002400040F400027D34914201D3641C00E0490077
:10025000002C02DA30BC002070474FF4000000236D
:10026000914201D3891A034340084FEA4101F7D173
:1002700051B1914202D14FF0004105E002D24FF05E
:10028000010101E06FF0010103EBC450284430BCD0
:1002900000F078B896230022114600F07CB820F0D8
:1002A0000040C10DC0F3160040F400007F2901DAC0
:1002B00000207047962903DCC1F19601C8407047C1
:1002C0009639884070470000002801DBC0F10040EB
:1002D000002901DBC1F100418142704730B50B4676
:1002E000014600202022012409E021FA02F59D4266
:1002F00005D303FA02F5491B04FA02F52844151E3A
:10030000A2F10102F1DC30BD2DE9F05F05460020CD
:1003100092469B4688460646814640241BE0284676
:1003200041464746224600F03EFA53465A46C01A16
:10033000914110D311461846224600F025FA2D1A95
:1003400067EB01084F4622460120002100F01CFA0D
:1003500017EB00094E41201EA4F10104DFDC4846E2
:1003600031462A464346BDE8F09F7CB50023CDE9DF
:1003700000330546684600F054FA6946284602F004
:100380000BF97CBD0029A8BF7047401C490008BF7D
:1003900020F00100704710B4B0FA80FC00FA0CF0B5
:1003A00050EA010404BF10BC704749B1CCF12004ED
:1003B00021FA04F411FA0CF118BF0121214308437A
:1003C000A3EB0C01CB1D4FEA00614FEA102042BFA6
:1003D000002010BC704700EBC35010440029A4BF9C
:1003E00010BC7047401C490008BF20F0010010BC41
:1003F00070472DE9FE4F804681EA0300C00F0C468E
:10040000009021F0004123F00045B8EB0200A94123
:1004100005D24046214690461C460B46024623F034
:100420000040104347D0270DC7F30A00C3F30A5119
:100430000290401A019040286BDAC3F3130040F495
:10044000801B0098924620B10023D2EB030A63EB95
:100450000B0B01985946C0F14002504600F094F948
:1004600006460D4650465946019A00F0ACF910EB8D
:1004700008006141002487EA115284EAE7731A43B5
:1004800040D0009A62B3019A012A4FEA075215DC64
:10049000001B61EB02014FF0004202EA0752CDE976
:1004A0000042001C41F5801132462B4600F0FBF95A
:1004B00003B0BDE8F08F40462146F9E7001B61EB31
:1004C0000201001C41F5801300185B412018A2F5C1
:1004D000001747EB030140EAD570B6196D4111E0F2
:1004E0006D084FEA360645EAC0754FEA0752001B11
:1004F00061EB0201001C41F5801149084FEA300010
:100500000019514132462B4603B0BDE8F04F00F0D0
:10051000BBB90098012240000023D0EB020263EB3C
:10052000E073009821464FEAE074B8EB000061EBFD
:100530000401E9E783F000435BE781F0004158E7FD
:100540002DE9FE4F81EA030404F0004421F000414C
:1005500000944FF0000B23F0004350EA01045ED0FA
:1005600052EA03045BD0C3F30A54C1F30A552C4486
:10057000A4F2F3340194A0FB0254C1F3130141F43B
:100580008011C3F3130343F4801301FB024400FB07
:10059000034E840A970A44EA815447EA8357A4FB2E
:1005A000076802958D0A05FB07854FEA932C04FB2B
:1005B0000C542705029D4FEA065847EA1637B5EB5B
:1005C00008056EEB070C870E920E47EA811742EA88
:1005D0008312A7FB0201B6EB0B0164EB00042B0DA9
:1005E00043EA0C335E1844EB1C50DA465146E7FBF5
:1005F0000201C5F313044FEA0B3343EA14534FEAE5
:100600000432019C43EA0603A4F10C040294009C0A
:10061000CDE900B400F047F903B0BDE8F08F002049
:100620000146F9E72DE9F04D81EA030404F0004B9F
:1006300021F0004514464FF0000A23F0004150EA33
:10064000050220D054EA01021DD0C5F30A57024624
:10065000C5F31303C1F31300C1F30A5640F4801528
:1006600043F48013A7EB0608101BD64608F2FD38AA
:1006700073EB050002D308F1010801E092185B4119
:10068000B8F1000F03DA00200146BDE8F08D00202C
:100690004FF48011064684460EE0171B73EB0507E6
:1006A00005D3121B63EB050306434CEA010C490812
:1006B0004FEA300092185B4150EA0107EDD152EA4F
:1006C000030012D082EA040083EA0501084305D042
:1006D000101BAB4106D20122002306E000224FF09E
:1006E000004302E06FF0010253101AEB06004CEBDE
:1006F000085110EB0A0041EB0B01BDE8F04D00F092
:10070000C3B8C1F30A52C1F3130140F2FF3341F4FD
:1007100080119A4202DA00200146704740F23343CA
:100720009A42A2F2334202DC524200F03CB800F09E
:100730002BB8000030B5041E71F1000404DB4FF04B
:100740000044404264EB0101141E73F1000405DB18
:100750001C464FF00043524263EB0403994208BF2A
:10076000904230BD064C074D06E0E06840F00103C2
:1007700094E8070098471034AC42F6D3FFF7DCFC4E
:10078000888B0008A88B0008202A04DB203A00FA96
:1007900002F1002070479140C2F1200320FA03F3D8
:1007A000194390407047202A04DB203A21FA02F0D6
:1007B0000021704721FA02F3D040C2F1200291409B
:1007C000084319467047202A06DBCB17203A41FA26
:1007D00002F043EAE07306E041FA02F3D040C2F1CE
:1007E0002002914008431946704700000FB40023CF
:1007F00000B589B00CA900910B996FF00042CB6055
:100800001E4B06931E4B07930423CDE901321D4A6C
:10081000089202466B46002000F02CF909B05DF802
:1008200014FB70B586B006464FF0FF300091CDE95D
:100830000101002015460C4604903246694604A882
:10084000FFF7D4FF02460498211825B108B10846E5
:1008500000E020462860049800280DD0002A02DD20
:100860000098884208D0081B0094CDE90104324664
:10087000694604A8FFF7BAFF06B070BDAD0C0008CA
:10088000CB0C00084309000810B5141E73F10004D6
:1008900008DA401C41F1000192185B411A4301D172
:1008A00020F0010010BD2DE9F04D92469B4611B19C
:1008B000B1FA81F202E0B0FA80F220329046FFF7FE
:1008C00063FF04460F4640EA0A0041EA0B01534623
:1008D0005A46084313D0114653EA010019D0C8F113
:1008E00040025046FFF75FFF05460E465046594608
:1008F0004246FFF749FF084305D0012004E02046A7
:100900003946BDE8F08D0020054346EAE0762C43E9
:1009100037430A986305E40AA0EB08000022FD0AA9
:1009200044EA47540A3002D500200146E9E70105B0
:1009300010196941DDE9084500196941BDE8F04D2C
:10094000A2E7C0B24FF4F05100F006BA2DE9FF4F14
:10095000087883B09946FF2805D0491C2D2804D07B
:100960000024002008E000200BE00124F9E700EB60
:10097000800003EB4000491C0B78FF2BF7D104B13A
:10098000404200230293147819461D462D2C01D0B5
:100990002B2C04D1521C2D2C13D000240294AA46D7
:1009A0001478FF2C0FD00A25A3FB057801FB0581E5
:1009B0004FF0000C03FB0C11521CE3194AEB010130
:1009C000EEE70124EAE7814453EA010002D019F579
:1009D000C87F06DA03980021C0E9001107B0BDE81E
:1009E000F08F0025AE4E2F46DFF8B882184600F093
:1009F000DEF9CDE90001B9F1000002DAC9F1000425
:100A000000E004460023A74A1AEB030B42EB045A0A
:100A100012E0E00707D02A46334638464146FFF742
:100A20008FFD074688462A46334610461946FFF78B
:100A300087FD05460E466410002CEAD1DDE9000171
:100A4000B9F1000F5A46534606DAFFF7EBFD3A4676
:100A50004346FFF7E7FD05E0FFF772FD3A464346E0
:100A6000FFF76EFD029A0AB181F00041039AC2E9D4
:100A70000001B3E72DE9FF4F1F468DB0D7E90146CE
:100A80004FF0FF382E2045464FF000090B90B96912
:100A90006D1C0E988847396A824688470028F6D12F
:100AA000BAF1FF3F0AD024F4D064002E11DDBAF170
:100AB0002B0F08D0BAF12D0F0BD102E0404611B038
:100AC0008DE744F48064B9696D1C0E9888478246AE
:100AD000761E6946600501D52D2000E02B208DF89B
:100AE000000001F1010B0DF1200809E0B9696D1C4E
:100AF0000E98884782460F9844F40074761E05606D
:100B0000002E02DDBAF1300FF0D00B998A453ED1AC
:100B100044F0800406E00F99681CA9F1010944F42F
:100B200000740860B9696D1C761E0E98884782466D
:100B30003028F0D02BE00B998A4505D1200603D44C
:100B400044F08004761E18E0504601F063FE08B3BE
:100B50000DF11301761E44F400748B4508D2AAF1FE
:100B600030000BF8010B200607D5A9F1010003E0C6
:100B7000200602D409F101008146A00502D50F9993
:100B8000681C0860B9696D1C0E9888478246002E63
:100B9000D1DC53E0002E51DDBAF1650F02D0BAF17D
:100BA000450F4BD1A00549D5B9696D1C24F440749B
:100BB000761E0E9888478246002E0CDD2B2804D026
:100BC000BAF12D0F07D144F48074B9696D1C0E98E9
:100BD00088478246761EE00501D52D2100E02B21B5
:100BE00008F8011BCDF82C8021E00DF12901761EBB
:100BF00044F4007488450CD2AAF1300010F0FF00D4
:100C000088F8000002D10B99884509D908F101083C
:100C100006E0E00501D5244801E042F20F7081466C
:100C2000B9696D1C0E98884782460F980560002EA2
:100C300004DD504601F0EEFD0028D6D1F9690E988A
:100C40008847FF208BF8000088F8000000200690FD
:100C500007904B466A4608A906A8FFF777FEA0054D
:100C600002D46FF001002AE714F0240F0AD0E00745
:100C700014D1DDE906123868031D3B600068C0E945
:100C800000120BE0DDE9060100F048F80146E0073C
:100C900004D13868021D3A600068016028460EE7FA
:100CA000000014400000F03FF1D8FFFF426842B15D
:100CB000016811F8013B23B1521EC0E90012184629
:100CC00070470121C160881E704742685AB1C368ED
:100CD000016843B983688B4205D0491E521CC0E9A4
:100CE0000012002070474FF0FF30704730B5041EEF
:100CF00071F1000404DB4FF00044404264EB010159
:100D0000141E73F1000405DB1C464FF000435242F1
:100D100063EB04038B4208BF824230BD01F0004305
:100D200030B421F0004150EA010206D00A0DA2F5CC
:100D30006072C1F31301002A02DC30BC002070474E
:100D4000440F44EAC104C100E01830BC00EBC250BB
:100D5000FFF718BB002070477F2801D9002208E068
:100D6000064A02EB5002C007127800D1120902F0C5
:100D70000F0201209040084070470000468B000899
:100D800070B521F0004303430CD0C1F30A55002491
:100D9000D5EB040564EB0403D617AD1AB34102DBAF
:100DA0000020014670BD201841EB025170BD0EB508
:100DB00040F2334202920022CDE900221346FFF7AF
:100DC00072FD03B000BD00BFFEE7000010B588B0A3
:100DD0000121480600F0EEFC0121042000F00AFD8C
:100DE0004FF48050ADF81C0018208DF81F00032030
:100DF0008DF81E0007A9284800F07EFA4FF4006025
:100E0000ADF81C0048208DF81F0003208DF81E004F
:100E100007A9214800F070FA01208DF817008DF81D
:100E200018008DF8190000208DF81A008DF81600B2
:100E300001208DF81B0000208DF812000420ADF871
:100E4000100000208DF813000D208DF814000220F2
:100E50008DF8150004A9114800F0A6F804460120F9
:100E60008DF80A0000208DF80B0001208DF80C0091
:100E70000020ADF80000ADF80200ADF80400ADF8B8
:100E80000600ADF8080001208DF80D00684600F05E
:100E900007F8204608B010BD00080140006400407B
:100EA00010B50021837A012202FA03F13D4A12684B
:100EB00042F001023B4B1A603A4A1C3212688A43E4
:100EC000384B1C331A60027BCAB9364A0C3212689E
:100ED0008A43344B0C331A604288C38842EA034386
:100EE000304A4032847A42F834300288838842EAB9
:100EF00003432C4A4032847A02EBC4025360027BE3
:100F0000012A19D1274A0C3212680A43254B0C33A7
:100F10001A604288038842EA0343224A4032847AB4
:100F200042F83430C288838842EA03431D4A403283
:100F3000847A02EBC4025360C27A3AB9194A121D8C
:100F400012688A43174B1B1D1A6006E0154A121DD2
:100F500012680A43134B1B1D1A60028932B9114AE9
:100F6000143212688A430F4B14331A600289012A23
:100F700006D10C4A143212680A430A4B14331A6021
:100F8000427B012A06D1074A1C3212680A43054BEC
:100F90001C331A60034A126822F00102014B1A60E6
:100FA00010BD00000066004030B50246002000235E
:100FB000146824F002041460146844F001041460FE
:100FC00000E05B1C546804F001041CB94FF6FF7488
:100FD000A342F6D1546804F001040CB900206CE07F
:100FE0008C79012C04D1146844F08004146003E06F
:100FF000146824F080041460CC79012C04D11468A6
:1010000044F04004146003E0146824F040041460C9
:101010000C7A012C04D1146844F02004146003E01D
:10102000146824F0200414604C7A012C04D1146854
:1010300044F01004146003E0146824F010041460F9
:101040008C7A012C04D1146844F00804146003E085
:10105000146824F008041460CC7A012C04D11468BC
:1010600044F00404146003E0146824F004041460E1
:101070008C78A407CD7844EA05640D7944EA0544E8
:101080004D7944EA05540D886D1E2C43D4611468D3
:1010900024F001041460002300E05B1C546804F099
:1010A00001041CB14FF6FF74A342F6D1546804F05A
:1010B00001040CB1002000E0012030BD02460020F8
:1010C00019B9D36803F0030006E0012903D11369BD
:1010D00003F0030000E00020704710B500F5D8735E
:1010E00003EB01131B6803F004031372137A53B963
:1010F00000F5D87303EB01131B6840F2FF7404EA98
:101100005353136009E000F5D87303EB01131B6818
:101110006FF0604404EAD303536000F5D87303EB27
:1011200001131B6803F00203537200F5D87303EB3D
:1011300001135B6803F00F03937200F5D87303EBA0
:1011400001135B681B0AD37400F5D87303EB01131A
:101150009B68D37200F5D87303EB01139B681C0ADC
:10116000147300F5D87303EB01139B681C0C5473C4
:1011700000F5D87303EB01139B681B0E937300F506
:10118000D87303EB0113DB68D37300F5D87303EB5B
:101190000113DB681C0A147400F5D87303EB011308
:1011A000DB681C0C547400F5D87303EB0113DB6887
:1011B0001B0E937421B9C36843F02003C36003E09E
:1011C000036943F02003036110BD10B502460020FF
:1011D000936803F08063B3F1806F00D110E09368EF
:1011E00003F00063B3F1006F01D1012008E09368C0
:1011F00003F08053B3F1805F01D1022000E00420AE
:10120000042874D002F5C07303EB00131B6803F0CD
:10121000010402F5C07303EB00131C600B7A7BB969
:101220004B7A0C8843EA445302F5C07404EB001473
:101230002468234302F5C07404EB0014236010E01B
:101240000B7A4C6843EAC4034C7A234302F5C0741A
:1012500004EB00142468234302F5C07404EB00146B
:1012600023608B7A03F00F038B7202F5C07303EBDC
:1012700000135B6823F00F0402F5C07303EB001347
:101280005C6002F5C07303EB00135B688C7A234348
:1012900002F5C07404EB001463608B7B1C064B7B6F
:1012A00044EA03440B7B44EA0323CC7A234302F54C
:1012B000C07404EB0014A3608B7C1C064B7C44EAD6
:1012C00003440B7C44EA0323CC7B234302F5C07424
:1012D00004EB0014E36002F5C07303EB00131B681A
:1012E00043F0010402F5C07303EB00131C6010BD52
:1012F00070477047704770472DE9F041024600255E
:101300000026002000230024002791F803C00CF0E1
:101310000F0591F803C00CF0100CBCF1000F03D0C6
:1013200091F802C04CEA050591F800C0BCF1000F2D
:1013300031D0146800202BE04FF0010C0CFA00F3C0
:10134000B1F800C00CEA03069E4220D183004FF0A2
:101350000F0C0CFA03F7BC4305FA03FC4CEA040437
:1013600091F803C0BCF1280F06D14FF0010C0CFA24
:1013700000FCC2F814C00AE091F803C0BCF1480FA9
:1013800005D14FF0010C0CFA00FCC2F810C0401C53
:101390000828D1D31460B1F800C0BCF1FF0F34DDD0
:1013A000546800202EE000F1080C4FF0010808FA04
:1013B0000CF3B1F800C00CEA03069E4221D1830071
:1013C0004FF00F0C0CFA03F7BC4305FA03FC4CEA90
:1013D000040491F803C0BCF1280F05D100F1080CFA
:1013E00008FA0CF8C2F8148091F803C0BCF1480F59
:1013F00007D100F1080C4FF0010808FA0CF8C2F808
:101400001080401C0828CED35460BDE8F081000055
:1014100010B50021024802F0FDFC0446204610BD34
:101420007D00002000BFFEE70021224A12783AB971
:10143000214A12784A2A3BD101221E4B1A7037E00A
:101440001C4A1278012A0FD11B4A1278303AD1B2C5
:101450001A4A127881540222164B1A70174A1278CF
:10146000521C164B1A7023E0124A1278022A07D136
:10147000114A1278202A1BD103220E4B1A7017E052
:101480000C4A1278032A13D10B4A1278202A05D16C
:101490000022084B1A70094B1A7009E0064A1278AC
:1014A000064B1B78C254054A1278521C034B1A7023
:1014B00070470000130000201200002014000020DC
:1014C00070B5044600250CB1032C07D10020144947
:1014D0008871F02048804FF4A0708880052C01D0DE
:1014E000062C07D101200E4988714FF4A070488066
:1014F000F020888004B900BF032C01D145F0C0055D
:10150000052C01D145F06005062C01D145F0A00560
:10151000362002F0E3FC45F0080002F085FC70BDC7
:101520009C2A002070B505460E46144601231A4633
:101530003146284602F00EFC204602F075FC70BDD4
:101540002DE9F04706460F4614461D46DDF820807B
:1015500004FB05F92B4622463946304602F0FAFBD9
:1015600002E0404602F060FCB9F10000A9F1010977
:10157000F7D1BDE8F08710B501F0E0FE01F098FE6C
:1015800001F0AEFF10BD2DE9FF4F85B081468A46C0
:101590004FF0000B002001900798A0EB0905089878
:1015A000A0EB0A06CDF80C90CDF808A0002D01DDC7
:1015B000012705E00DB9002702E04FF0FF376D422B
:1015C000002E02DD4FF0010806E016B94FF00008CA
:1015D00002E04FF0FF387642B54201DD2C4600E0D4
:1015E0003446002004901EE0129ADDE90210FFF755
:1015F00099FFAB44019830440190A34505DDABEB66
:10160000040B0398384480B203900198A04206DD91
:101610000198001B01900298404480B20290049807
:10162000401C80B20490611C04988842DCDD09B043
:10163000BDE8F08F2DE9FC4706460F4615461C46CF
:10164000DDE90A892048007808B9BDE8FC87B24680
:101650000C2C06D0102C04D0182C02D0202C00D03A
:1016600018242BE018484088001BB04202DA564686
:10167000381987B214488088001BB84200DAE4E7C2
:1016800028787F280FDACDE900892A782346394661
:10169000304601F0C1FC6D1C204604EBD07106EB16
:1016A00061018EB20AE023462A4639463046CDE92A
:1016B000008901F041FDAD1C301986B22878002860
:1016C000D0D100BFC1E700009C2A002008B501214D
:1016D000082000F08FF80420ADF8000010208DF8ED
:1016E000030003208DF8020069460548FFF704FE59
:1016F000042003491031086002A000F029FF08BD52
:10170000000C01404C454420D6B8CABEB5C62020C6
:1017100020202020202020202020C5E4D6C3CDEA90
:10172000B3C90D0000BFFEE77047000070B500218F
:1017300000230F22C47804B3154C246804F4E06439
:10174000C4F5E064210AC1F10403CA40447804FAF4
:1017500003F184781440214309010E4C0678A15509
:10176000047804F01F050124AC4005786D11AD002C
:1017700005F1E025C5F8004109E0047804F01F05F3
:101780000124AC40044D0678761145F8264070BD22
:101790000CED00E000E400E080E100E002490143DC
:1017A000024A1160704700000000FA050CED00E0ED
:1017B0007047000029B1064AD2690243044BDA613E
:1017C00004E0034AD2698243014BDA6170470000AA
:1017D0000010024029B1064A12690243044B1A6103
:1017E00004E0034A12698243014B1A61704700000A
:1017F0000010024029B1064A92690243044B9A61E3
:1018000004E0034A92698243014B9A6170470000E9
:101810000010024029B1064AD2680243044BDA6044
:1018200004E0034AD2688243014BDA60704700004B
:101830000010024030B500210022002400232D4D6D
:101840006D6805F00C0121B1042905D0082923D1C8
:1018500005E0294D056022E0274D05601FE0254D7C
:101860006D6805F47012234D6D6805F4803402250F
:1018700005EB92421CB9214D554305600BE01D4D0F
:101880006D6805F400351DB11C4D5543056002E03F
:10189000194D5543056002E0174D056000BF00BFBC
:1018A000144D6D6805F0F0010909154D6B5C056874
:1018B000DD4045600F4D6D6805F4E061090A104D8B
:1018C0006B5C4568DD4085600A4D6D6805F46051CC
:1018D000C90A0B4D6B5C4568DD40C560054D6D6800
:1018E00005F44041890B074D6B5CC568B5FBF3F50A
:1018F000056130BD0010024000127A0000093D0071
:101900006200002072000020704700000448D0E907
:1019100000305A1C40F100000149C1E90020704725
:10192000480000200CB53D48006840F001003B49EC
:101930000860084640683A49084038494860084607
:10194000406820F4FE0048604FF41F0088600020CB
:10195000019000900846006840F48030086000BFA5
:101960002E48006800F4003000900198401C01905F
:10197000009818B90198B0F5A06FF1D12748006818
:1019800000F40030002843D02648006840F01000E2
:10199000244908600846006820F0030008600846F3
:1019A000006840F0020008601C4840681B4948601D
:1019B0000846406848600846406840F480604860D7
:1019C0000846406820F47C1048600846406840F4AF
:1019D000E81048600846006840F08070086000BF6A
:1019E0000E48006800F000700028F9D00B484068ED
:1019F00020F00300094948600846406840F00200B2
:101A0000486000BF0548406800F00C000828F9D184
:101A10004FF00060044908600CBD00000010024057
:101A20000000FFF80020024008ED00E010B530484B
:101A3000008800F02000A0B12E480088B0F5806F2B
:101A400003DB2B48001D008810BD2948001D0088BD
:101A5000C1B2284802880088401C264B18802648BE
:101A600081542348008800F01000D8B10020234999
:101A7000A1F80E0C4FF480621F492148FEF776FB57
:101A80001C4800881D49A1F80E0C00201949088047
:101A90004FF480611848FEF782FB1548008814480F
:101AA000001D00881248008800F08000F0B1104846
:101AB0000C30008800F08000C0B112480178007836
:101AC000401C104A10701048405C0949091D0880EC
:101AD000104600780D490978884207D104480C3037
:101AE000008820F0800002490C31088000BFABE77D
:101AF000004C00403E0000209C2200208600002078
:101B0000960C00202E0000209C1700202F000020A3
:101B100010B52C48008800F0200090B12A480088B9
:101B2000B0F5806F02DB2748808810BD254880888B
:101B3000C1B2254802880088401C234B18802348E6
:101B400081542048008800F01000C0B100212048D6
:101B500041824FF480621D491430FEF707FB1A489A
:101B600001881B4841820020174908804FF480619A
:101B70001648FEF714FB1348008812488088114865
:101B8000008800F08000D0B10E48808900F080000D
:101B9000A8B1104801780078401C0E4A10700E4819
:101BA000405C08498880104600780C4909788842D2
:101BB00005D10448808920F080000249888100BF57
:101BC000B3E7000000500040400000209C260020A9
:101BD00086100020300000209C18002031000020DA
:101BE00010B540F225510B4800F008FA01280FD13A
:101BF000084800F0A1FA084908700848FFF714FCEB
:101C00000648007806490860FFF702FC044988602E
:101C100010BD000000380140120000207C000020B0
:101C20001800002010B586B004463648806940F49C
:101C30008040344988610846806940F0040088612A
:101C40004815ADF8140003208DF8160018208DF803
:101C5000170005A92C48FFF74FFB4FF48060ADF843
:101C6000140004208DF8170005A92748FFF744FB4E
:101C700025208DF8100002208DF811008DF812003B
:101C800001208DF8130004A8FFF750FD1F4800F055
:101C900067F900940020ADF80400ADF80600ADF837
:101CA0000800ADF80C000C20ADF80A006946174892
:101CB00000F0D6F9002240F22771144800F0ABF989
:101CC000012240F22551114800F0A5F9012240F20D
:101CD00024410E4800F09FF901210C4800F034F92E
:101CE0004FF60F700949088001200949087000204B
:101CF000488008A000F02CFC14A000F029FC06B0DD
:101D000010BD0000001002400008014000380140F2
:101D1000860000200D0D0D3D3D3D3D3D3D3D3D3DD1
:101D20003D3D2053544D33324631303320BFAAB7A6
:101D3000A2B0E5B3F5CABCBBAFB1A8B8E6203D3D43
:101D40003D3D3D3D3D3D3D3D3D0D00005553415226
:101D50005431B3F5CABCBBAFC5E4D6C320202020A4
:101D60002020BDD3CAD5D6D0B6CFA1A2BFD5CFD063
:101D7000D6D0B6CF2C20B7A2CBCDD6D0B6CF0D00C3
:101D800010B53048008800F02000A0B12E4800882F
:101D9000B0F5806F03DB2B48001D008810BD29487B
:101DA000001D0088C1B2284802880088401C264BCC
:101DB0001880264881542348008800F01000D8B1CC
:101DC00000202349A1F806044FF480621F492148EE
:101DD000FEF7CCF91C4800881D49A1F80604002034
:101DE000194908804FF480611848FEF7D8F9154862
:101DF00000881448001D00881248008800F0800008
:101E0000F0B110480C30008800F08000C0B11248DA
:101E100001780078401C104A10701048405C094955
:101E2000091D0880104600780D490978884207D1BD
:101E300004480C30008820F0800002490C310880F2
:101E400000BFABE7004400403A0000209C1A00208D
:101E5000860000208E0400202A0000209C1500200F
:101E60002B00002010B53048008800F02000A0B101
:101E70002E480088B0F5806F03DB2B48001D0088DA
:101E800010BD2948001D0088C1B22848028800887A
:101E9000401C264B1880264881542348008800F0B7
:101EA0001000D8B100202349A1F80A084FF480623D
:101EB0001F492148FEF75AF91C4800881D49A1F81E
:101EC0000A080020194908804FF480611848FEF77D
:101ED00066F9154800881448001D008812480088DB
:101EE00000F08000F0B110480C30008800F0800055
:101EF000C0B1124801780078401C104A1070104898
:101F0000405C0949091D0880104600780D49097890
:101F1000884207D104480C30008820F08000024934
:101F20000C31088000BFABE7004800403C000020B7
:101F30009C1E002086000020920800202C0000201B
:101F40009C1600202D00002021B1828942F400520D
:101F5000828104E082894DF6FF731A4082817047C6
:101F600010B504462048844209D101218803FFF7B7
:101F700051FC00214FF48040FFF74CFC32E01B483D
:101F8000844209D101214804FFF724FC00214FF4C9
:101F90000030FFF71FFC25E01548844209D10121DC
:101FA0008804FFF717FC00214FF48020FFF712FC94
:101FB00018E01048844209D10121C804FFF70AFC47
:101FC00000214FF40020FFF705FC0BE00A48844293
:101FD00008D101210805FFF7FDFB00214FF4801017
:101FE000FFF7F8FB10BD000000380140004400403E
:101FF00000480040004C00400050004002460020D5
:10200000B1F5007F00D100BF13880B400BB1012058
:1020100000E000207047F0B50346002400260025AC
:10202000002040F66A17B94200D100BF1846C1F33C
:10203000421401F01F06012707FA06F5012C01D111
:102040000C3004E0022C01D1103000E014301AB141
:1020500007682F43076002E00768AF430760F0BDE1
:102060002DE9F04786B005460E460024A24600BF83
:10207000A1460027B08900B100BF2F462C8A4CF63C
:10208000FF700440F08804432C82AC894EF6F310B4
:102090000440B08831890843718908430443AC8106
:1020A000AC8A4FF6FF400440B0890443AC8201A8DB
:1020B000FFF7C0FB1F48874202D1DDF810A001E006
:1020C000DDF80CA0A88900F4004040B10AEBCA007A
:1020D00000EB0A1031684900B0FBF1F807E00AEBA9
:1020E000CA0000EB0A1031688900B0FBF1F86420E7
:1020F000B8FBF0F004012009642101FB1089A889D4
:1021000000F4004040B1322000EBC900B0FBF1F018
:1021100000F00700044308E0322000EB09106421BE
:10212000B0FBF1F000F00F0004432C8106B0BDE8D5
:10213000F08700000038014001468888C0F308009D
:10214000704700BFFEE7000008B500201A4908707C
:10215000012008761948806940F480501749886149
:1021600001211020FFF746FB01210420FFF742FB6D
:102170004FF40050ADF8000010208DF8030003204C
:102180008DF8020069460E48FFF7B6F84FF400508C
:102190000B490861E020ADF8000018208DF803001D
:1021A00069460848FFF7A8F801F008FE01F096FC20
:1021B00000F0C0FE08BD0000A66E00200010024026
:1021C00000100140000801402DE9F04104460E4690
:1021D00017461448007808B9BDE8F08101F0EEFD1B
:1021E0004FF4005010494861032001F08DFDC4F305
:1021F000074001F089FDC4F3072001F085FDE0B23E
:1022000001F082FD002504E0FF2001F07DFD705506
:102210006D1CBD42F8D34FF400500349086100BF64
:10222000DAE70000A66E0020001001402DE9F0471B
:1022300082460C4690462046E21704EB5272D210BA
:102240002146E31704EB5373DB10A4EBC3030BB17C
:10225000012300E000231A44624302F0FF099AF8C8
:1022600000600AF1010082460578812E05DB402DD1
:1022700003DBFF2D01D0FF2E0AD1002004E0002156
:1022800008F8011B411CC8B24845F8DBBDE8F087DF
:102290007F2D03DAA5F14000C5B202E0A5F14100AF
:1022A000C5B2A6F18100C6B2BE2000FB065000FBFD
:1022B00009F70C2C06D0102C0BD0182C12D0202C87
:1022C00022D118E04A46414607F52000FFF77CFF7F
:1022D0001AE04A46414607F520000D4B1844FFF727
:1022E00073FF11E04A46414607F52000094B1844A8
:1022F000FFF76AFF08E04A46414607F52000064B13
:102300001844FFF761FF00BF00BF00BFBEE7000039
:1023100060C40800E074140000C22E002DE9F047EC
:102320000746884614462748007808B9BDE8F08774
:102330003819B0F5200F07D92248007E012803D1B3
:1023400021A000F005F9F1E73E0BC7F30B09C9F531
:102350008055DFF8A8A001F031FDAC4200DC254635
:102360002BE030034FF480525146FFF72DFF3046EB
:1023700000F03AFF002007E018F8001009EB000217
:102380000AF80210411C88B2A842F5DB30034FF472
:102390008052514601F05EFDA54200D10EE0A844F6
:1023A000761C4FF00009601B84B2B4F5805F02DD3B
:1023B0004FF4805000E020460546D2E700BF00BF42
:1023C000B4E70000A66E0020D2AAD0B4C8EBB5C412
:1023D000CAFDBEDDD4DAD7D6BFE2CAFDBEDDB4E6A3
:1023E000B4A2C7F8C4DAA3ACD2D1CCF8B9FDB1BE5F
:1023F000B4CEB2D9D7F721210D000000C06E002065
:1024000010B54FF4005009494861052001F07CFCEB
:1024100000BFFF2001F078FC00F001000028F8D197
:102420004FF400500149086110BD00000010014048
:1024300010B5FEF7CBFC0446204610BD2DE9FF5F2A
:1024400004460026B046206807282ED2DFE800F0B8
:102450002D040A121A2226003B4DA088C8214843A9
:1024600086B222E04FF4FA35A08800EB80004004E9
:10247000060C1AE04FF4FA35A08800EB8000400407
:10248000060C12E04FF47A35A08800EB800080043F
:10249000060C0AE04FF44855A68806E04FF4AF3525
:1024A000A088C0EBC00086B200BF00BF40F6B830C5
:1024B000864200DD06460021A068FDF705FF01D237
:1024C0004FF001082846FDF7E5FE82461F49A06847
:1024D000FDF7A2FE83465146FDF76CFE8146FDF7EF
:1024E000DEFE0746002000900190029003902078C5
:1024F0008DF80000FD208DF801008DF8028030126B
:102500008DF80300F0B28DF80400A0798DF8050075
:10251000380E8DF80600380C8DF80700380A8DF853
:102520000800F8B28DF80900207B8DF80A00607B66
:102530008DF80B006B208DF80C000D21684601F022
:1025400071FABDE8FF9F0000001027000000B443AF
:102550000FB4054B10B503A9044A029800F062F9C4
:1025600010BC5DF814FB00003D3200083400002070
:102570000FB4084B10B504A902AA039800F052F951
:10258000044602A9002000F0D0FC204610BC5DF8F3
:1025900014FB00002B2F000810B50446D1E9000100
:1025A00000F002F8206010BDF8B504460D466A46FA
:1025B00000F052FE00987E30009000281EDC0022C1
:1025C000134620462946FEF791FB17D0002140F61E
:1025D0000800FEF7BFFB064620462946FEF79EFB95
:1025E000044640F6080006EA0001FEF7B3FB34F0AB
:1025F000004004BF022000F045F829E00098FF28C1
:1026000028DB00210846FEF7A5FB00F44006002267
:10261000134620462946FEF78DF88CBF002501257C
:10262000022000F02FF84FF0FF4446B1002D0CBF00
:102630004FF400004FF48000B04218BF084C042152
:102640000846FEF787FB002D04BF84F00040F8BD6C
:102650002046F8BD20462946BDE8F840FEF75EBB9F
:10266000FFFF7F7F02E008C8121F08C1002AFAD1CD
:1026700070477047002001E001C1121F002AFBD102
:102680007047000001490860704700007800002092
:102690002DE9FF5F82B00021DDE90430020DDDF895
:1026A00040B0034318D044F61050A2F2FF32424328
:1026B0001514119801281FD0A5EB0B00401C5FEAF0
:1026C000000A4FF000064E4FDFF83891B0465046F2
:1026D00015D5CAF1000413E0119801244AA301287A
:1026E00001D16FEA0B010298119AC0E90031C0E9EB
:1026F000024206B0BDE8F09FCBF10000DFE70446E0
:102700000021404A491842EB0450CDE9001012E084
:10271000E00707D032463B4640464946FDF710FFEA
:102720008046894632463B4610461946FDF708FF6B
:1027300006460F466410002CEAD1DDE90401DDE90C
:102740000023BAF1000F06DAFDF7FAFE42464B46C7
:10275000FDF7F6FE05E0FDF765FF42464B46FDF747
:1027600061FF04460E460022284BFDF7E3FF03D825
:102770004FF0FF30014607E00022254B204631464E
:10278000FDF737FEFDF7BDFF102409E0002C0ADB42
:102790000A220023FDF7B8FD039B30321A55641E50
:1027A00050EA0102F2D1641C039AC4F111031444EB
:1027B000119A012A03D0012208430DD10AE00843EF
:1027C00004D000204FF0110B119072E7A3EB0B0522
:1027D0006D1E0DE05B4504DD4FF0000205F10105C3
:1027E00004E003DA4FF00002A5F10105002AECD065
:1027F00002981199C0E90231C0E9004579E700006B
:10280000000014400000F03F300000000000F043E2
:102810000000E03F30380A2801D201207047002034
:10282000704700002DE9FF4F95B09A46884606464E
:102830000025EEE1252877D100242746F94A012119
:10284000039400E0044316F8013F203B01FA03F033
:102850001042F7D130782A2811D06FF02F0330784A
:10286000A0F13002092A16D8039A44F0020402EBC0
:10287000820203EB42021044761C0390EFE758F803
:10288000042B0392002A03DA504244F400540390CC
:1028900044F00204761C30782E2816D116F8010F69
:1028A00044F004042A280DD06FF02F023078A0F1F4
:1028B0003003092B09D807EB870302EB4303C71842
:1028C000761CF3E758F8047B761C30786C280FD020
:1028D00006DC4C2817D068280DD06A2814D104E0F3
:1028E000742810D07A280FD10DE044F400140AE0C7
:1028F00044F4801401E044F440147278824202D11E
:1029000004F58014761C761C307866280BD013DC16
:10291000582877D009DC002875D04528F6D04628FD
:10292000F4D047281AD193E118E0632835D0642801
:1029300079D0652812D18BE1702873D008DC672824
:10294000F1D069286FD06E280DD06F2806D1ACE089
:1029500073282CD0752874D0782853D052461799F4
:1029600090476D1C54E1C4F30250022809D003289B
:102970000DD0D8F8001004280DD00D6008F104081F
:1029800046E1D8F80010EA17C1E90052F6E7D8F896
:1029900000100D80F2E70D70F0E718F8041B8DF8B9
:1029A000001000208DF80100EB46012003E058F8EC
:1029B00004BB4FF0FF3061074FF0000102D40DE07F
:1029C00009F101018946B9420FDA8145F8DB1BF8AC
:1029D00009100029F4D108E009F10101894681427A
:1029E000FADB1BF809100029F6D103985346A0EB37
:1029F000090721463846179A00F080FA284400EB70
:102A0000090507E044E008E10DE01BF8010B524620
:102A100017999047B9F10109F7D253462146384634
:102A2000179AF2E039E00A21C4F302524FF0000B8A
:102A30000091022A06D058F8040BC117032A09D0C6
:102A40000AE023E008F1070020F00702F2E80201A3
:102A5000904605E000B2C117042A01D140B2C11767
:102A6000002906DA0A460021404261EB02012D22CC
:102A700002E0220504D52B228DF80420012203E078
:102A8000E20701D02022F7E7914657E00A2100E053
:102A900010214FF0000B00910BE010214FF0000BC4
:102AA00044F004040827009103E008204FF0000BD5
:102AB0000090C4F30252022A05D058F8040B0021FA
:102AC000032A08D008E008F1070020F00702F2E826
:102AD0000201904603E080B2042A00D1C0B24FF058
:102AE000000922072AD53278702A07D0DDF800C005
:102AF0008CF0100C5CEA0B0C05D00EE040228DF837
:102B00000420012208E050EA010306D030238DF8AA
:102B100004308DF8052002229146009B83F00803C3
:102B200053EA0B030AD150EA010201D1620705D52D
:102B300030228DF804204FF001097F1E3278582A88
:102B400004D039A20C920CAA02920BE03BA2F9E746
:102B50005B46009AFDF7D8FB0C9B9B5C029A521EC9
:102B60000292137050EA0102F2D1029804A9081AE5
:102B700000F1200B600702D524F4803400E0012727
:102B80005F4502DDA7EB0B0000E0002000EB0B012E
:102B9000009003984944401A0390E00306D453463A
:102BA0002146179A039800F0A9F90544002706E08A
:102BB00001A85246C05D179990476D1C7F1C4F4578
:102BC000F6DBE0030CD553462146179A039800F034
:102BD00095F9054404E030205246179990476D1C42
:102BE0000099481E00900029F5DC08E0029802993F
:102BF00052460078491C0291179990476D1CBBF111
:102C00000001ABF1010BF1DC5BE100F065F905447B
:102C1000761C307800287FF40DAE19B02846BDE848
:102C2000F08F000009280100303132333435363757
:102C30003839616263646566000000003031323308
:102C400034353637383941424344454600000000A8
:102C5000600700D4062708F1070020F00700F0E81D
:102C60000223804603F0004C5FEA0C0001D097A0DD
:102C700009E0200501D596A005E0E00701D095A068
:102C800001E0AFF24C001390307823F00043652848
:102C90000CD006DC452809D046281DD047287FD116
:102CA0003BE0662818D067287AD136E00021112F42
:102CB00001DB112000E0781CCDE9000104A90CA87B
:102CC000FFF7E6FCDDE90D010C9A4FF0000B07F170
:102CD0000109109200914EE04FF000400097CDE9BD
:102CE000011004A90CA8FFF7D3FCDDE90D020C9B31
:102CF0000F994FF0000B91461093009211B9791C77
:102D000000EB0109B7EB090003D4C0F1FF3B07F169
:102D10000109A9EB0700019042E0012F00DA012729
:102D20000021112F01DD112000E03846CDE900011E
:102D300004A90CA8FFF7ACFCDDE90D010C9A009189
:102D40004FF0000BB946109221070FD4009A4A4564
:102D500003DA914601E0A9F10109B9F1010F05DD9E
:102D6000109AA9F10101515C3029F4D0B84202DA7D
:102D700010F1040F03DA0121CDE9011010E0002861
:102D800003DC8344A9EB000102E0411C494500DD5E
:102D90008946A0EB0B00401C01904FF000400290D0
:102DA000200705D40198484502DB4FF0FF30019021
:102DB00000208DF84B0002980DF14B07B0F1004F49
:102DC00025D002200C902B200D90029800280CDAC0
:102DD000404202902D200D9007E00A210298FDF755
:102DE0007DFA3031029007F8011D0C99481E0C90B5
:102DF0000029F2DC02980028EFD1791E0D980870A6
:102E0000307800F0200040F0450007F8020D11A8CE
:102E1000C01BC01D02901398007800B1012000EB88
:102E20000901019801EBE071029801440398401AEE
:102E3000401E0390E00306D453462146179A039898
:102E400000F05CF805441398007818B152461799C1
:102E500090476D1CE00323D553462146179A0398EB
:102E600000F04CF805441BE0BBF1000F07DB0098B5
:102E7000584504DD1098179910F80B0001E01799D8
:102E800030205246904701980BF1010B401E05F18E
:102E90000105019004D12E205246179990476D1CD0
:102EA000B9F10001A9F10109DEDC05E017F8010B19
:102EB0005246179990476D1C0299481E02900029AE
:102EC000F4DC53462146179A03989EE62D00000035
:102ED0002B000000200000002DE9F04104460025F1
:102EE0001E461746880404D405E039462020B04722
:102EF0006D1C641EF9D52846BDE8F0812DE9F0412E
:102F0000044600251E469046C80301D5302700E040
:102F10002027880404D505E041463846B0476D1C9B
:102F2000641EF9D52846BDE8F0810A68531C0B6081
:102F30001070704738B51748007800B938BD16A032
:102F4000FFF706FB00240020009000250BE005F5AC
:102F5000200001226946FFF737F99DF80000204460
:102F6000C4B21348054413488542F0D3922C01D1D2
:102F7000012000E00020074908760846007E01286D
:102F800003D10DA0FFF7E4FA02E00EA0FFF7E0FA8C
:102F900000BFD3E7A66E002047424BD7D6BFE22042
:102FA000B2E2CAD42E2E2E20202020202020000085
:102FB00040420F0000845D00D7D6BFE2BFC9D3C333
:102FC0000D00000020B4EDCEF3A3ACD7D6BFE2B223
:102FD000BBBFC9D3C3210D0000EB8001C802002193
:102FE00000E0491C8142FCD3704741F6641148431C
:102FF000002100E0491C8142FCD3704701B50098D4
:10300000C0EBC000009000E000BF0098401E0090A0
:103010000028F9D108BD00002DE9F84F80460F4681
:1030200015461C46BA462046E31704EB5373DB10E3
:103030002146E61704EB5676F610A4EBC6060EB151
:10304000012600E000263344224604EBD2767610B7
:10305000734303F0FF0BA5F12000C5B200265CE02E
:103060000C2C07D105EB45002E4901EB800010F830
:1030700006901BE0102C05D12B4800EB051010F832
:10308000069013E0182C07D105EBC500274901EB8A
:10309000800010F8069009E0202C05D1244800EBB0
:1030A000851010F8069001E0BDE8F88F0020009030
:1030B0002DE009F0800030B10A9882B239464046CE
:1030C000FEF730FA05E00B9882B239464046FEF72B
:1030D00029FA4FEA49604FEA1069781C87B215480F
:1030E0008088B84200DCDFE7A7EB0A00A0420AD1E3
:1030F000574608F101001FFA80F80E484088404505
:1031000000DCD1E706E00098401CC0B200900098B7
:103110000828CEDB00BF701CC6B25E45A0DB00BF36
:10312000C2E70000A63F00081A4400080A4A000847
:10313000665700089C2A00202DE9F04FA1B00746F1
:103140000D4690461C46A9462046E21704EB5272F3
:10315000D2102146E31704EB5373DB10A4EBC30337
:103160000BB1012300E000231A44624302F0FF0A7E
:103170006A4621464046FFF759F800262EE01DF822
:10318000060020904FF0000B22E0209800F0800015
:1031900030B12A9882B229463846FEF7C3F905E0D5
:1031A0002B9882B229463846FEF7BCF92098400693
:1031B000000E2090681C85B2A5EB0900A04203D147
:1031C0004D46781C87B206E00BF1010000F0FF0BC2
:1031D000BBF1080FD9DB00BF701CC6B25645CEDB71
:1031E00021B0BDE8F08F000010B50446114800780A
:1031F00000B910BD240300F01DFEFFF701F94FF4E4
:1032000000500D494861202000F07EFDC4F30740C6
:1032100000F07AFDC4F3072000F076FDE0B200F084
:1032200073FD4FF4005004490861FFF7E9F800BF4F
:10323000DFE70000A66E00200010014000BF054A35
:10324000128802F04002002AF9D0C2B2014B1B1DC5
:103250001A8070470038014010B5144600222260E1
:10326000114A21F000439342A8BF10BD53EA000267
:1032700008BF10BDB3F5801FA8BF226807DA362249
:10328000FDF77EFD6FF0350221F000432260DFF88C
:103290001CC06FF31E510CEB23531A4441F0FF5135
:1032A00041F00051226010BD0000F07F02FCFFFFE2
:1032B0002048406940F480701E49486100204FF06A
:1032C0002041086048601C4908604FF020400068B9
:1032D00040F480504FF0204108600846006840F4F8
:1032E000804008600846006840F01000086008460A
:1032F000406848600846406840F001004860084661
:10330000406840F4706048600B480068C1F80401F0
:1033100009480068C1F804010846D0F8040140F4E7
:103320004070C1F804010846006840F001000860E0
:103330007047000000100240040100A008B5644876
:10334000806940F00400624988610846806940F065
:10335000080088610846806940F0100088610846CE
:10336000806940F0200088610846806940F0400094
:10337000886103208DF8020018208DF803004FF4B7
:103380008040ADF8000069465248FDF7B5FF4FF4A4
:103390000040ADF8000069464E48FDF7ADFF012042
:1033A000ADF8000069464B48FDF7A6FF0220ADF8D6
:1033B000000069464748FDF79FFF8020ADF80000F8
:1033C00069464548FDF798FF4FF48070ADF800005E
:1033D00069464148FDF790FF4FF40070ADF80000DA
:1033E00069463D48FDF788FF4FF48060ADF8000066
:1033F00069463948FDF780FF4FF40060ADF80000E2
:1034000069463548FDF778FF4FF48050ADF800006D
:1034100069463148FDF770FF4FF40050ADF80000E9
:1034200069462D48FDF768FF4FF48040ADF8000075
:1034300069462948FDF760FF4FF40040ADF80000F1
:1034400069462548FDF758FF4FF48070ADF800003D
:1034500069462048FDF750FF4FF40070ADF80000BA
:1034600069461C48FDF748FF4FF48060ADF8000046
:1034700069461848FDF740FF1020ADF80000694686
:103480001448FDF739FF2020ADF8000069461148C7
:10349000FDF732FF8020ADF8000069460D48FDF7CA
:1034A0002BFF4FF40060ADF8000069460948FDF7B6
:1034B00023FF10208DF8030003208DF802004FF445
:1034C0000040ADF8000069460448FDF715FF08BD4F
:1034D00000100240001401400018014000080140A3
:1034E00008B5D32000F0FAFC00F0F2FA00F0F0FA90
:1034F00000F0EEFAA3490881084600894FF6FF71F3
:1035000001EA00209F49088100F0E2FA9D490989FB
:1035100008439C490881084601899BA0FFF718F8D9
:103520009848008949F24131884200D008BDCF2037
:1035300000F0D4FC002000F077FCC12000F074FC07
:10354000302000F071FCED2000F0C8FC642000F099
:103550006BFC032000F068FC122000F065FC812069
:1035600000F062FCE82000F0B9FC852000F05CFC73
:10357000102000F059FC7A2000F056FCCB2000F01F
:10358000ADFC392000F050FC2C2000F04DFC002058
:1035900000F04AFC342000F047FC022000F044FC1C
:1035A000F72000F09BFC202000F03EFCEA2000F019
:1035B00095FC002000F038FC002000F035FCB12024
:1035C00000F08CFC002000F02FFC1A2000F02CFCF6
:1035D000B62000F083FC0A2000F026FCA22000F0B8
:1035E00023FCC02000F07AFC1B2000F01DFCC12051
:1035F00000F074FC012000F017FCC52000F06EFC08
:10360000302000F011FC302000F00EFCC72000F04C
:1036100065FCB72000F008FCF22000F05FFC002001
:1036200000F002FC262000F059FC012000F0FCFB19
:10363000E02000F053FC0F2000F0F6FB2A2000F001
:10364000F3FB282000F0F0FB082000F0EDFB0E203B
:1036500000F0EAFB082000F0E7FB542000F0E4FB58
:10366000A92000F0E1FB432000F0DEFB0A2000F07F
:10367000DBFB0F2000F0D8FB002000F0D5FB002082
:1036800000F0D2FB002000F0CFFB002000F0CCFBCC
:10369000E12000F023FC002000F0C6FB152000F024
:1036A000C3FB172000F0C0FB072000F0BDFB11207A
:1036B00000F0BAFB062000F0B7FB2B2000F0B4FBB3
:1036C000562000F0B1FB3C2000F0AEFB052000F0DE
:1036D000ABFB102000F0A8FB0F2000F0A5FB3F2063
:1036E00000F0A2FB3F2000F09FFB0F2000F09CFBAE
:1036F0002A2000F0F3FB002000F096FB002000F0F1
:1037000093FB002000F090FBEF2000F08DFB2B20BE
:1037100000F0E4FB002000F087FB002000F084FBB9
:10372000012000F081FB3F2000F07EFB3A2000F0FA
:10373000D5FB552000F078FB112000F0CFFB0A20CC
:10374000FFF753FC292000F0C9FB0020FDF7B8FE6D
:103750001448006840F400401249086000200090BE
:1037600008488088401E83B206484088401E82B2C6
:1037700000210846FDF7E4FE01200249087000BF61
:10378000D4E600009C2A0020CFD4CABEC6C120BC0B
:10379000ECB2E22E2E2E2020202020202020257882
:1037A0000D0A00001008014008B501211020FEF7A5
:1037B00021F848208DF803000F20ADF80000032009
:1037C0008DF8020069460248FDF796FD08BD00002D
:1037D000001001401FB54FF4A060FDF7DFFF01218D
:1037E0000846FEF707F85948406840F0007057490E
:1037F00048604FF4E130FEF715FAFDF767FF5448D3
:10380000006840F0040052490860FFF7CDFFFEF762
:103810009BFCFDF7B0FEFEF70BFE48B100204FF613
:10382000FF7118234BA2CDE900103021FDF702FFF4
:103830004FF47A70FFF7D0FB00204FF6FF7118238A
:1038400048A2CDE900103021FDF7F4FE00204FF62C
:10385000FF71182348A2CDE9001008211E20FDF7B2
:10386000E9FE4FF6FF702823EF2219460090002052
:10387000FDF789FE00204FF6FF71102342A2CDE92B
:1038800000103021FDF7D6FE00204FF6FF71102307
:1038900041A2CDE900104421FDF7CCFE00204FF6F7
:1038A000FF7110233DA2CDE900105821FDF7C2FEA3
:1038B00000204FF6FF71102339A2CDE900106C21D2
:1038C000FDF7B8FE00204FF6FF71102335A2CDE9B9
:1038D00000108021FDF7AEFE00204FF6FF7110238F
:1038E00031A2CDE900109421FDF7A4FE00204FF68F
:1038F000FF7110232DA2CDE90010A821FDF79AFE3B
:1039000023E00120FFF768FB294801880088401C5C
:10391000274A10804FF47A7091FBF0F200FB1210EE
:1039200038B90B48001F006880F004000849091FDF
:1039300008602048FEF782FD00F066F828B16A466C
:1039400002A903A800F038F800BFDAE70000014040
:10395000100C0140D5FDD4DAB3F5CABCBBAF2E2E96
:103960002E000000202020202020202020202020A9
:1039700020202020000000004C6F637573C1F9D631
:10398000E1BBFAD0B5B1DB00B8F7B9D8BDDAD0FDEC
:10399000D7AABDC7B6C83A004A313A004A323A00FF
:1039A0004A333A004A343A004A353A004A363A0035
:1039B000100000200000002070B586B004460D46BF
:1039C000164601AA00210F48FDF787FB9DF80E005F
:1039D00028709DF80C0010B90198206001E0029851
:1039E00020609DF80D0050B9002005E00DF10F0199
:1039F000095C3154411CC8B229788142F6DC06B01A
:103A000070BD00000064004010B500210448FDF7BF
:103A100055FB002801DD012010BD0020FCE700005F
:103A2000006400402DE9F04786B006468846002431
:103A3000A14600270025A246A8F10200C0B2814697
:103A40003FE004208DF80C000020019030784AEA15
:103A50000020029000208DF80D0070788DF80F0086
:103A6000A9EB0400C7B2082F12DA002509E0A01C58
:103A7000325C0DF10F00691C4254601CC4B2681C1A
:103A8000C5B2BD42F3DB781CC0B28DF80E0010E069
:103A9000002509E0A01C325C0DF10F00691C4254A6
:103AA000681CC5B2601CC4B2072DF3DB08208DF87A
:103AB0000E0001A90548FDF788FB0AF10100C0B21C
:103AC00082464C45BDDB06B0BDE8F087006400408F
:103AD000014800887047000000000260F8B500252A
:103AE0004FF4005052494861902000F00DF9002039
:103AF00000F00AF9002000F007F9002000F004F9B6
:103B0000FF2000F001F90502FF2000F0FDF8054359
:103B10004FF4005046490861012046490870A5F558
:103B20006F401438052827D2DFE800F0030A111887
:103B30001F0041A242A13F48401CFEF719FD29E0A9
:103B400040A23FA13B48401CFEF712FD22E03FA2ED
:103B50003BA13848401CFEF70BFD1BE03DA238A1FD
:103B60003448401CFEF704FD14E03CA234A1314867
:103B7000401CFEF7FDFC0DE03AA231A12D48401C8F
:103B8000FEF7F6FC00202B49087029463AA0FEF704
:103B9000DFFC00BF00BF27480078012840D1002685
:103BA0000020009000270024042269463046FEF7DA
:103BB0000BFB9DF801009DF8001040EA01279DF8DD
:103BC00003009DF8021040EA0124B7F56E4F07D0BC
:103BD000012400208DF8020001208DF803000CE084
:103BE000601C84B220128DF80200E0B28DF8030050
:103BF00000208DF802008DF80300EE208DF8000003
:103C000000208DF80100042269463046FEF786FB4D
:103C10000848C4822246411C1EA0FEF799FC05E01C
:103C200027A0FEF795FC33A0FEF792FCF8BD00003C
:103C300000100140A66E0020573235513136000089
:103C40002573000057323551333200005732355159
:103C50003634000057323551313238005732355141
:103C600032353600466C617368C9E8B1B8CAA7B08E
:103C7000DC20212121000000B6C1C8A1B5BDB5C41A
:103C8000B4EDCEF3D0CDBAC5CAFDBEDDA3BA25646E
:103C90000D0A0000466C617368B4E6B4A220BCEC67
:103CA000B2E22E2E2E2020202020D0CDBAC53A25DB
:103CB00073202CB5DA2564B4CECAB9D3C30D000085
:103CC000CAFDBEDDB4E6B4A2BCECB2E2A3BA2020C9
:103CD000202020202020D0CDBAC5B6C1C8A1B4ED87
:103CE000CEF3A3ACC9E8B1B8B2BBBFC9D3C3210DF1
:103CF00000000000B3A2CAD4B8B4CEBBD0BEC6ACDC
:103D00002E2E2E2E2E2E0D000246002105E0481CE0
:103D1000C1B2FA2901DD002070470D48008900F08A
:103D200002000028F3D00A488281002105E0481CE7
:103D3000C1B2FA2901DD0020EEE70548008900F054
:103D400001000028F3D002488089C0B2E4E70000F7
:103D5000003001402DE9F04104460D4616461F464D
:103D60002A2000F0BBF8201200F05EF8E0B200F06C
:103D70005BF8A119491EC1F30F2000F055F8A119F5
:103D8000491EC8B200F050F82B2000F0A7F8281206
:103D900000F04AF8E8B200F047F8E919491EC1F30B
:103DA0000F2000F041F8E919491EC8B200F03CF8B4
:103DB0002C2000F093F8BDE8F081000010B5012040
:103DC000134908800846008840F002000880084631
:103DD000008840F0040008800846008808800846F3
:103DE000008808800846008840F400700880084673
:103DF000008840F4807008800846008808800846E3
:103E0000008840F0400008800A20FFF7F7F810BD56
:103E10000030014008B50A4600210091014668467D
:103E2000FCF7A3FA009808BD01490880704700001C
:103E30000000026010B54FF40050054948610620AB
:103E4000FFF762FF4FF400500149086110BD000008
:103E5000001001402DE9F04704460E4691461D48EA
:103E6000007808B9BDE8F0874FF480754FF000087E
:103E70002AE0FFF7DFFFFEF7C3FA4FF400501649C0
:103E800048610220FFF740FFC4F30740FFF73CFF03
:103E9000C4F30720FFF738FFE0B2FFF735FF002734
:103EA00004E0F05DFFF730FF781C87B2AF42F8DB2B
:103EB0004FF4005008490861FEF7A2FA2E442C4442
:103EC00008F1010000F0FF08B8F1100FD1DB00BFCE
:103ED000C8E70000A66E0020001001404FF0C0416E
:103EE00008807047800080008000FC1F4000400078
:103EF000FF7F20001000F00F000800046002800126
:103F000000020004000104020800E83F010202026E
:103F100002020802C83F040207020402040204026B
:103F2000F47F00000000F80F08080808F80F0808E0
:103F30000808F80F2002222224222812280A200230
:103F4000FF7F00000000FC1F0000000000000000D8
:103F5000FF7F800080008808881084208240814094
:103F6000A0004000400080008000FF7F2000200073
:103F70002000E00F2008200820081008100808087A
:103F8000040502028000FE3F02202000FF7F100493
:103F90007802C0033C1C8000FF7FA00290048C18B4
:103FA00083608000000000000000000000000000AE
:103FB0000000000000003F40000000000000000082
:103FC0003000400030004000000009000BC03D0000
:103FD0000BC03D00090018C024407FE02240318022
:103FE0000000180024C01B000D80324001800380B7
:103FF0001C4027401C80074000401000600000006B
:104000000000000000000000000000001F802040B1
:1040100040200000402020401F80000000000900D8
:1040200006001F80060009000000040004003F8015
:104030000400040000000010006000000000000008
:10404000000004000400040004000400000000005C
:1040500000400000000000000000002001C0060039
:104060003800400000001F802040204020401F807A
:104070000000000010403FC000400000000018C0D9
:10408000214022402440184000001080204024405D
:1040900024401B80000002000D0011003FC00140C1
:1040A00000003C80244024402440238000001F80E6
:1040B000244024403440038000003000200027C00A
:1040C0003800200000001B802440244024401B8036
:1040D00000001C0022C0224022401F80000000007F
:1040E0000000084000000000000000000000046024
:1040F000000000000000000004000A001100208001
:104100004040090009000900090009000000000002
:104110004040208011000A000400180020002340C5
:104120002400180000001F802040274029401F4025
:104130000000004007C039000F0001C000402040CF
:104140003FC0244024401B8000001F8020402040AE
:1041500020403080000020403FC0204020401F8091
:10416000000020403FC024402E4030C000002040CE
:104170003FC024402E00300000000F00108020407F
:1041800022403380020020403FC0040004003FC0B2
:104190002040204020403FC02040204000000060E0
:1041A000202020203FC02000200020403FC024408D
:1041B0000B0030C0204020403FC020400040004065
:1041C00000C03FC03C0003C03C003FC00000204096
:1041D0003FC00C4023003FC020001F8020402040F3
:1041E00020401F80000020403FC0244024001800D1
:1041F00000001F802140214020E01FA0000020403F
:104200003FC02440260019C0004018C0244024406C
:10421000224031800000300020403FC0204030006C
:10422000000020003F80004000403F802000200030
:104230003E0001C0070038002000380007C03C00E5
:1042400007C038000000204039C0060039C02040B7
:1042500000002000384007C03840200000003040F7
:1042600021C02640384020C00000000000007FE050
:10427000402040200000000070000C00038000403F
:1042800000000000402040207FE00000000000000F
:10429000200040002000000000000010001000106E
:1042A000001000100010000000004000000000009E
:1042B0000000000002800540054003C000402000CF
:1042C0003FC004400440038000000000038004401D
:1042D00004400640000000000380044024403FC02A
:1042E000004000000380054005400340000000003E
:1042F00004401FC0244024402000000002E005507C
:1043000005500650042020403FC00440040003C074
:1043100000400000044027C00040000000000010E2
:104320000010041027E00000000020403FC00140C2
:10433000070004C00440204020403FC0004000402F
:10434000000007C0040007C0040003C000000440D0
:1043500007C00440040003C0004000000380044084
:10436000044003800000041007F004500440038060
:104370000000000003800440045007F000100440D7
:1043800007C0024004000400000000000640054091
:10439000054004C00000000004001F8004400040ED
:1043A0000000040007800040044007C000400400F3
:1043B000070004C0018006000400060001C00700D9
:1043C00001C006000000044006C0010006C0044011
:1043D00000000410071004E0018006000400000043
:1043E000044005C006400440000000000000040036
:1043F0007BE040200000000000000000FFF0000013
:104400000000000040207BE00400000000004000AD
:10441000800040002000200040000000000000005C
:10442000000000000000000000000000000000008C
:104430001FCC000C0000000000000000080030004D
:1044400060000800300060000000022003FC1E2015
:10445000022003FC1E200220000000000E181104A0
:104460003FFF10840C78000000000F0010840F380C
:1044700000C0077818840078000000780F8410C40A
:1044800011240E9800E40084000808006800700001
:10449000000000000000000000000000000000001C
:1044A00007E0181820044002000000004002200429
:1044B000181807E0000000000000024002400180E0
:1044C0000FF0018002400240000000800080008068
:1044D0000FF800800080008000000001000D000E39
:1044E00000000000000000000000000000800080CC
:1044F000008000800080008000800000000C000C24
:10450000000000000000000000000000000600188D
:1045100000600180060018002000000007F0080875
:1045200010041004080807F0000000000804080444
:104530001FFC000400040000000000000E0C10141A
:104540001024104411840E0C000000000C181004FC
:104550001104110412880C700000000000E0032018
:10456000042408241FFC0024000000001F9810846D
:1045700011041104108810700000000007F0088872
:104580001104110418880070000000001C001000C5
:1045900010FC13001C001000000000000E38114435
:1045A0001084108411440E38000000000700088CAD
:1045B00010441044088807F00000000000000000CC
:1045C000030C030C000000000000000000000001CC
:1045D0000106000000000000000000000080014013
:1045E000022004100808100400000220022002200B
:1045F000022002200220022000000000100408080F
:104600000410022001400080000000000E00120093
:10461000100C106C10800F00000003E00C1813E465
:10462000142417C4082807D000000004003C03C469
:104630001C40074000E4001C000410041FFC11048F
:10464000110411040E880070000003E00C1810041F
:104650001004100410081C10000010041FFC1004AB
:1046600010041004080807F0000010041FFC1104D7
:10467000110417C410040818000010041FFC1104D2
:10468000110017C010000800000003E00C1810040F
:10469000100410441C780040000010041FFC10841B
:1046A0000080008010841FFC10040000100410041F
:1046B0001FFC1004100400000000000300011001A2
:1046C00010011FFE10001000000010041FFC110458
:1046D00003801464181C1004000010041FFC100454
:1046E000000400040004000C000010041FFC1F0064
:1046F00000FC1F001FFC1004000010041FFC0C0431
:10470000030000E010181FFC100007F00808100458
:1047100010041004080807F0000010041FFC1084A7
:104720001080108010800F00000007F0081810247F
:104730001024101C080A07F2000010041FFC1104CA
:10474000110011C011300E0C000400000E1C1104E9
:104750001084108410441C3800001800100010044D
:104760001FFC100410001800000010001FF81004B7
:104770000004000410041FF8100010001E0011E0D7
:10478000001C007013801C0010001FC0103C00E0D3
:104790001F0000E0103C1FC000001004180C16346D
:1047A00001C001C01634180C100410001C001304C2
:1047B00000FC13041C00100000000804101C10640E
:1047C000108413041C0410180000000000000000F6
:1047D0007FFE4002400240020000000030000C005A
:1047E00003800060001C0003000000004002400243
:1047F00040027FFE000000000000000000002000DA
:1048000040004000400020000000000100010001C5
:104810000001000100010001000100004000400013
:1048200020000000000000000000000000980124AB
:1048300001440144014400FC000410001FFC0088F6
:10484000010401040088007000000000007000886E
:1048500001040104010400880000000000700088C9
:104860000104010411081FFC0004000000F80144C9
:1048700001440144014400C8000000000104010497
:104880000FFC1104110411001800000000D60129CA
:104890000129012901C90106000010041FFC008440
:1048A00001000100010400FC0004000001041904DF
:1048B00019FC0004000400000000000000030001D7
:1048C0000101190119FE0000000010041FFC002462
:1048D000004001B4010C01040000000010041004A9
:1048E0001FFC0004000400000000010401FC01049E
:1048F000010001FC0104010000FC010401FC008432
:1049000001000100010400FC0004000000F80104A3
:1049100001040104010400F80000010101FF008509
:10492000010401040088007000000000007000888D
:1049300001040104010501FF00010104010401FC5F
:1049400000840104010001800000000000CC01246B
:10495000012401240124019800000000010001004D
:1049600007F80104010400000000010001F8000440
:1049700000040004010801FC000401000180017032
:10498000000C001001600180010001F0010C0030FA
:1049900001C00030010C01F0010000000104018C95
:1049A00000740170018C010400000101018101719A
:1049B000000E001801600180010000000184010C5C
:1049C000013401440184010C0000000000000000DB
:1049D000000001003EFC4002400200000000000018
:1049E0000000FFFF00000000000000004002400245
:1049F0003EFC01000000000000000000600080009C
:104A00008000400040002000200000000000000066
:104A10000000000000000000000000000000000096
:104A20000000000000000000000000000000000086
:104A3000000000000000000000000000000F8038AF
:104A40000FFE380F8038000000000000000000005A
:104A500000000000000000000100000600000C0043
:104A6000003800003100000600000C000038000093
:104A70003000000000000000000061800067F807BF
:104A8000F9800061800061800061800061800067C2
:104A9000F807F980006180000000000000000000BD
:104AA00001C0E003E0F00630080418081FFFFE0410
:104AB0000E080787F00381E000000000000001F00D
:104AC00000060C00040408060C7001F9C0000E007A
:104AD000003BE000EC18070808040C180003E00095
:104AE00000000001E00007F003F818041C08041798
:104AF0000807E1D003C0E00023B0003C0800200814
:104B00000000100000000000000100003100003231
:104B100000001C0000000000000000000000000079
:104B20000000000000000000000000000000000085
:104B3000000000000000000000007F0001FFC0072F
:104B400080F00C001810000420000200000000009B
:104B5000002000021000040C00180780F001FFC0C4
:104B6000007F0000000000000000000000000000C6
:104B70000000000000004200006600006600003CEB
:104B80000000180003FFC0001800003C0000660091
:104B9000006600004200000000000800000800005D
:104BA000080000080000080001FFC000080000081D
:104BB00000000800000800000800000000000001DC
:104BC00000003100003200001C0000000000000066
:104BD00000000000000000000000000000000000D5
:104BE000000008000008000008000008000008009D
:104BF000000800000800000800000800000800008D
:104C00000000000000000000000038000038000034
:104C1000380000000000000000000000000000005C
:104C200000000000000000000000000600001C0062
:104C30000070000180000E0000380000C000070076
:104C4000001C0000300000000000000000007F8019
:104C500001FFE00380700600180400080400080645
:104C6000001803807001FFE0007F8000000000005A
:104C70000000000001000801000801000803FFF81F
:104C800007FFF8000008000008000008000000000E
:104C9000000000000001C03802C058040098040160
:104CA00018040218040418061C1803F81801E0F888
:104CB00000000000000000000001C0E003C0F0049C
:104CC000000804080804080806180803F41801E797
:104CD000F00001E000000000000000000000030000
:104CE000000D0000110000610000810803010807A9
:104CF000FFF80FFFF80001080001080000000000A5
:104D0000000000E007FCD00608080610080610089E
:104D1000061008061838060FF00607C0000000004D
:104D20000000000000003F8001FFE0038430020823
:104D300018041008041008041008071810030FF0D6
:104D40000007C000000000000000000003C00007D2
:104D500000000600000600F80607F806180006E046
:104D60000007000006000000000000000001E1E074
:104D700003F7F0063410041808041808040C08049B
:104D80000C0806161803F3F001C1E0000000000053
:104D90000000F80003FC300306380402080402088F
:104DA0000402080404100308F001FFC0007F0000A3
:104DB00000000000000000000000000000000000F3
:104DC00000007038007038007038000000000000EB
:104DD00000000000000000000000000000000000D3
:104DE000000000000000301A00301C00000000002D
:104DF00000000000000000000000000000000000B3
:104E00000008000014000022000041000080800122
:104E1000004002002004001008000800000000000C
:104E200000002100002100002100002100002100DD
:104E300000210000210000210000210000210000CD
:104E4000000000000000000008000804001002003C
:104E5000200100400080800041000022000014007A
:104E600000080000000000000003C00004C00004AF
:104E70000000080038080F380808380810000C3007
:104E80000007E00003C000000000000000003F80B9
:104E900000FFE0038070020F1006708804C08804D1
:104EA0008308047F8802C09003012000FE400000B8
:104EB000080000180001F8003E0801C200070200C7
:104EC00007E20000FE00001FC80001F800003800E3
:104ED000000804000807FFF807FFF80408080408A2
:104EE0000804080804080806180803F41801E7F085
:104EF0000001E0000000000000003F8001FFE0032F
:104F0000807002001804000804000804000804006F
:104F1000100600200780C000000004000807FFF80A
:104F200007FFF80400080400080400080400180241
:104F3000001003807001FFE0007F8000000004008B
:104F40000807FFF807FFF804080804080804080821
:104F5000040808043E080400080600180100600068
:104F6000000004000807FFF807FFF8040808040819
:104F700000040800040800043E00060000060000CB
:104F8000018000000000000000003F8001FFE003FE
:104F900080700600180400080402080402080203D6
:104FA000F00783F000020000020004000807FFF889
:104FB00007FFF804080800080000080000080000C7
:104FC000080004080807FFF807FFF80400080000BD
:104FD0000000000004000804000804000807FFF8AF
:104FE00007FFF8040008040008040008000000009F
:104FF000000000000000000600000700000104009F
:105000000104000104000307FFFE07FFFC04000089
:1050100004000004000004000807FFF807FFF8047C
:105020000C08001800003E0004C7800503C80600F5
:10503000F804003804001800000804000807FFF80E
:1050400007FFF8040008000008000008000008003E
:1050500000080000080000180000600000000400C4
:105060000807FFF807800807FC00007FC00003F86E
:105070000007C000780007800807FFF807FFF80462
:10508000000804000807FFF807000803C00000E05C
:1050900000003800001E000007000001C00400F0FE
:1050A00007FFF8040000000000007F8001FFE0031C
:1050B00080700600180400080400080600180300A9
:1050C0003001FFE0007F8000000004000807FFF8C7
:1050D00007FFF804040804040004040004040004A6
:1050E0000400060C0003F80001F0000000000000BE
:1050F00000007F8001FFE0038070060088040088C4
:105100000400C806003C03003E01FFE6007F840067
:10511000000004000807FFF807FFF8040808040867
:1051200000040C00040F00040BC00610F003F0385C
:1051300001E00800000800000001E0F803F030067C
:105140003010041808041808040C08040C0802069F
:10515000180207F00781E00000000180000600004F
:1051600004000004000004000807FFF807FFF8042B
:105170000008040000040000060000018000040094
:105180000007FFE007FFF004001800000800000817
:1051900000000800000800000804001007FFE004F9
:1051A000000004000006000007E00007FE00041FE6
:1051B000E00001F80000380001E0043E0007C000F4
:1051C00006000004000004000007E00007FFC00420
:1051D0001FF80007C007F80007FF80043FF800072A
:1051E000C004F800070000040000000000040008EC
:1051F00006001807C07805F1C8003E00001F8004B3
:1052000063E80780F80600180400080000000400A6
:105210000006000007800007E008047C08001FF873
:105220000007F800180804E0080700000600000462
:1052300000000000000100080600380400F8040324
:10524000E8040F08047C0805F00807C008070018E8
:1052500004006000000000000000000000000000EA
:1052600000000000003FFFFE20000220000220009E
:1052700002200002200002000000000000000000E8
:1052800008000007000000C0000038000006000011
:1052900001C000003000000E00000100000000000E
:1052A0000000000020000220000220000220000276
:1052B0002000023FFFFE0000000000000000000090
:1052C00000000000000000000000000800001000C6
:1052D0000030000020000030000010000008000036
:1052E00000000000000000000100000100000100BB
:1052F00000010000010000010000010000010000A9
:105300000100000100000100000100000000000099
:10531000000000200000200000100000100000002D
:10532000000000000000000000000000000000007D
:10533000000000F00019F8001B18002208002608E1
:10534000002408002410003FF8001FF800000800A7
:10535000001800000004000007FFF80FFFF000181D
:1053600018001008002008002008003018001FF066
:10537000000FC00000000000000007C0001FF00088
:105380001830002008002008002008003C08001CFD
:10539000100000600000000000000000000007C0D6
:1053A000001FF00038180020080020080020080422
:1053B000101007FFF80FFFF00000100000000000C1
:1053C000000000000007C0001FF00012300022188B
:1053D000002208002208003208001E10000E2000E3
:1053E000000000000000200000200800200801FF4D
:1053F000F803FFF80620080420080420080720000E
:1054000003000000000000000000000E000E6E000F
:105410001FF30031B10020B10020B1003191001F15
:1054200013002E1E00200E003000000000040008B3
:1054300007FFF80FFFF80010080020000020000010
:105440002008003FF8001FF80000080000000000DE
:1054500000000000002008002008002008063FF897
:10546000063FF800000800000800000800000000E7
:105470000000000000000000000003000003002006
:1054800001002001002003063FFE063FFC00000053
:1054900000000000000000000004000807FFF80FF3
:1054A000FFF8000188000300002FC00038F800203A
:1054B0003800200800000800000000000000000084
:1054C00004000804000804000807FFF80FFFF800B4
:1054D0000008000008000008000000000000002094
:1054E00008003FF8003FF8001008002000003FF8D7
:1054F000003FF8001008002000003FF8003FF800CF
:105500000008000000002008003FF8003FF80010ED
:1055100008001000002000002008003FF8001FF8DD
:105520000000080000000000000007C0000FF000AD
:10553000183000300800200800200800300800184B
:1055400030000FF00007C000000000000000200144
:10555000003FFF003FFF001011002009002008005D
:105560002008003038001FF0000FC00000000000CD
:10557000000007C0001FF0003818002008002008B5
:10558000002009001011001FFF003FFF0000010074
:105590000000002008002008002008003FF8003F1D
:1055A000F800080800100800200800200000300063
:1055B000003000000000000000000000000C780037
:1055C0001E1800330800230800210800218800214C
:1055D000980030F00038600000000000000020005B
:1055E00000200000200000FFF003FFF8002008006A
:1055F000200800200800003000000000000000002B
:1056000000002000003FF0007FF8000018000008B4
:10561000000008002010003FF8007FF0000010009C
:105620000000000000002000003000003C00003FAF
:10563000800023F0000078000070002380003C0010
:10564000003000002000002000003C00003FE0008F
:1056500023F80000E0002700003E00003FE00021AA
:10566000F80001E0003E00002000000000002008DB
:10567000002008003838003E680027800003C8007A
:105680002CF8003838002018002008000000000026
:1056900000002000003003003C01003F830023ECA9
:1056A000000070002380003C00002000002000006B
:1056B0000000000000000000003808002038002032
:1056C000F80023E8002F88003E0800380800201862
:1056D000000070000000000000000000000000005A
:1056E00000000000000008000014001FF7FC30005C
:1056F0000620000200000000000000000000000082
:10570000000000000000000000000000FFFFFF009C
:105710000000000000000000000000000000000089
:10572000000000002000023000061FF7FC001400FB
:105730000008000000000000000000000000000061
:105740000000000000180000600000400000400061
:105750000020000010000008000004000004000009
:105760000C0000100000000000000000000000001D
:105770000000000000000000000000000000000029
:105780000000000000000000000000000000000019
:105790000000000000000000000000000000000009
:1057A00000000000000000000000000000000000F9
:1057B000000000000000000000000000000007F0F2
:1057C00000C007FFE1E007F001E0000000C00000BA
:1057D00000000000000000000000000000000000C9
:1057E0000000000000000000000000000000002099
:1057F000000001C00000078000001F0000001E0024
:1058000000001C20000001C00000078000001F00F5
:1058100000001E0000001C0000000000000000004E
:105820000000000000000000000000180C0000183C
:105830000C0000180FE0001FFC0003F80C0000181B
:105840000C0000180C0000180C0000180C000018C8
:105850000FE0001FFC0003F80C0000180C000018FB
:105860000C0000000000000000000000000000002C
:105870000780007807C000FC0640010E00200307E7
:105880000020020380200FFFFFFC0201C020020065
:10589000E0600130704001F03F8000F01F00000028
:1058A00000000000000000FE000001FF00000301F6
:1058B000800002008060030181C001FF070000FE3C
:1058C00018000000E0000003BF00000CFFC00071E2
:1058D000806001C10020030180600000FFC0000063
:1058E0003F000000000000001F0000007FC000FC1F
:1058F000C0C001FF80600303E0200202782002069E
:105900001E2003FC074001F00380000103C00001DA
:105910001C600001E02000010020000100400000A8
:1059200001800000000000000000002000001C605A
:1059300000001C4000001F8000000F00000000005D
:105940000000000000000000000000000000000057
:105950000000000000000000000000000000000047
:105960000000000000000000000000000000000037
:105970000000000000000000000000000000000027
:1059800000000007F800003FFF00007807C001C0DA
:1059900000E00300003004000008080000041000CC
:1059A00000020000000000000000100000020800DB
:1059B0000004040000080300003001C000E000788B
:1059C00007C0003FFF000007F800000000000000D3
:1059D00000000000000000000000000000000000C7
:1059E0000000000000000000000000000000000CAB
:1059F0001800000E3800000E3800000630000003CA
:105A000060000061438000FFFF80006143000003ED
:105A1000600000063000000E3800000E3800000C58
:105A2000180000000000000000000000000000005E
:105A30008000000080000000800000008000000066
:105A4000800000008000007FFF0000008000000058
:105A50008000000080000000800000008000000046
:105A600080000000000000000000000000010000B5
:105A700000E3000000E2000000FC000000780000ED
:105A80000000000000000000000000000000000016
:105A90000000000000000000000000000000000006
:105AA0000000000000000000000000008000000076
:105AB00080000000800000008000000080000000E6
:105AC00080000000800000008000000080000000D6
:105AD00080000000800000008000000080000000C6
