:020000040800F2
:10000000D0750020E101000875150008C51400082E
:10001000711500080D0F0008C32000080000000043
:10002000000000000000000000000000490100087E
:1000300027130008000000008D0100085917000870
:10004000FB010008FB010008FB010008FB010008A0
:10005000FB010008FB010008291300082B1300080E
:10006000FB010008FB0100082D130008FB0100083C
:10007000FB010008FB010008FB010008FB01000870
:10008000FB010008FB010008FB010008FB01000860
:10009000FB010008FB010008FB010008FB01000850
:1000A000FB010008FB010008FB010008FB01000840
:1000B000FB010008FB010008FB010008FB01000830
:1000C000FB010008FB010008FB010008FB01000820
:1000D000FB010008091B0008E11C0008C51D000801
:1000E000FB010008FB010008FB010008FB01000800
:1000F000FB010008FB010008FB010008FB010008F0
:10010000FB010008FB010008FB010008FB010008DF
:100110007118000855190008FB010008FB010008D0
:10012000FB010008FB010008FB010008FB010008BF
:10013000DFF810D000F06CFB00480047CD2F00081E
:10014000AFF30080D0750020224B19680868B0E832
:10015000F00F80F30988BFF36F8F4FF0000080F33A
:1001600011884EF00D0E7047000000000648006830
:10017000006880F3088862B661B6BFF34F8FBFF3A3
:100180006F8F00DF00BF00BF08ED00E0EFF30980D4
:10019000BFF36F8F0F4B1A6820E9F00F106008B59E
:1001A0004FF0500080F31188BFF34F8FBFF36F8F74
:1001B00003F050FB4FF0000080F31188BDE80840C9
:1001C00019680868B0E8F00F80F30988BFF36F8FF3
:1001D000704700BF48000020EFF305807047000023
:1001E0000648804706480047FEE7FEE7FEE7FEE7D1
:1001F000FEE7FEE7FEE7FEE7FEE7FEE76917000819
:100200003101000840EA01039B0703D009E008C957
:10021000121F08C0042AFAD203E011F8013B00F8CB
:10022000013B521EF9D27047D2B201E000F8012B17
:10023000491EFBD270470022F6E710B513460A4666
:1002400004461946FFF7F0FF204610BD80EA010280
:1002500010B502F00043400022D04A001FD0010E2A
:1002600001EB1261C0F35600C2F3560240F40000E5
:1002700042F40002A0FB022000047F39140400D0E5
:10028000401C50EA124001D44000491EC2B20C0684
:1002900004EBD010401C4008802A02D003E000206C
:1002A00010BD20F00100002900DA0020184310BD25
:1002B00030B480EA010202F0004530F0004221F043
:1002C000004013D090B1C30DD40DC2F31601C0F39A
:1002D0001600E41A41F4000140F400027D3491421A
:1002E00001D3641C00E04900002C02DA30BC00207D
:1002F00070474FF400000023914201D3891A034351
:1003000040084FEA4101F7D151B1914202D14FF07B
:10031000004105E002D24FF0010101E06FF0010160
:1003200003EBC450284430BC00F082B8962300226E
:10033000114600F086B820F00040C10DC0F3160051
:1003400040F400007F2901DA00207047962903DC81
:10035000C1F19601C8407047963988407047000047
:10036000002801DBC0F10040002901DBC1F10041A0
:1003700081427047002801DBC0F10040002901DB09
:10038000C1F100418842704730B50B46014600205C
:100390002022012409E021FA02F59D4205D303FA47
:1003A00002F5491B04FA02F52844151EA2F10102C8
:1003B000F1DC30BD2DE9F05F0546002092469B46FA
:1003C00088460646814640241BE02846414647466B
:1003D000224600F03EFA53465A46C01A914110D3C5
:1003E00011461846224600F025FA2D1A67EB01083F
:1003F0004F4622460120002100F01CFA17EB0009AD
:100400004E41201EA4F10104DFDC484631462A4655
:100410004346BDE8F09F7CB50023CDE90033054697
:10042000684600F054FA6946284602F009F87CBD97
:100430000029A8BF7047401C490008BF20F00100F8
:10044000704710B4B0FA80FC00FA0CF050EA0104D6
:1004500004BF10BC704749B1CCF1200421FA04F468
:1004600011FA0CF118BF012121430843A3EB0C0141
:10047000CB1D4FEA00614FEA102042BF002010BCA4
:10048000704700EBC35010440029A4BF10BC704754
:10049000401C490008BF20F0010010BC70472DE946
:1004A000FE4F804681EA0300C00F0C46009021F009
:1004B000004123F00045B8EB0200A94105D24046B7
:1004C000214690461C460B46024623F0004010434E
:1004D00047D0270DC7F30A00C3F30A510290401A10
:1004E000019040286BDAC3F3130040F4801B00989E
:1004F000924620B10023D2EB030A63EB0B0B019869
:100500005946C0F14002504600F094F906460D46A7
:1005100050465946019A00F0ACF910EB08006141D1
:10052000002487EA115284EAE7731A4340D0009A04
:1005300062B3019A012A4FEA075215DC001B61EBF6
:1005400002014FF0004202EA0752CDE90042001CCE
:1005500041F5801132462B4600F0FBF903B0BDE8AF
:10056000F08F40462146F9E7001B61EB0201001CB9
:1005700041F5801300185B412018A2F5001747EBE6
:10058000030140EAD570B6196D4111E06D084FEADC
:10059000360645EAC0754FEA0752001B61EB0201BF
:1005A000001C41F5801149084FEA30000019514103
:1005B00032462B4603B0BDE8F04F00F0BBB90098BF
:1005C000012240000023D0EB020263EBE0730098AD
:1005D00021464FEAE074B8EB000061EB0401E9E763
:1005E00083F000435BE781F0004158E72DE9FE4FBF
:1005F00081EA030404F0004421F0004100944FF02C
:10060000000B23F0004350EA01045ED052EA0304D9
:100610005BD0C3F30A54C1F30A552C44A4F2F3345B
:100620000194A0FB0254C1F3130141F48011C3F300
:10063000130343F4801301FB024400FB034E840ABE
:10064000970A44EA815447EA8357A4FB0768029556
:100650008D0A05FB07854FEA932C04FB0C542705F4
:10066000029D4FEA065847EA1637B5EB08056EEBD0
:10067000070C870E920E47EA811742EA8312A7FB06
:100680000201B6EB0B0164EB00042B0D43EA0C33C3
:100690005E1844EB1C50DA465146E7FB0201C5F3F5
:1006A00013044FEA0B3343EA14534FEA0432019C1C
:1006B00043EA0603A4F10C040294009CCDE900B4C3
:1006C00000F047F903B0BDE8F08F00200146F9E7DC
:1006D0002DE9F04D81EA030404F0004B21F00045C0
:1006E00014464FF0000A23F0004150EA050220D0E2
:1006F00054EA01021DD0C5F30A570246C5F313039D
:10070000C1F31300C1F30A5640F4801543F480137B
:10071000A7EB0608101BD64608F2FD3873EB050060
:1007200002D308F1010801E092185B41B8F1000F13
:1007300003DA00200146BDE8F08D00204FF480115F
:10074000064684460EE0171B73EB050705D3121B04
:1007500063EB050306434CEA010C49084FEA3000FD
:1007600092185B4150EA0107EDD152EA030012D022
:1007700082EA040083EA0501084305D0101BAB415F
:1007800006D20122002306E000224FF0004302E0DF
:100790006FF0010253101AEB06004CEB085110EBFE
:1007A0000A0041EB0B01BDE8F04D00F0C3B8C1F306
:1007B0000A52C1F3130140F2FF3341F480119A420F
:1007C00002DA00200146704740F233439A42A2F217
:1007D000334202DC524200F03CB800F02BB800007B
:1007E00030B5041E71F1000404DB4FF000444042B8
:1007F00064EB0101141E73F1000405DB1C464FF08D
:100800000043524263EB0403994208BF904230BD5B
:10081000064C074D06E0E06840F0010394E807004D
:1008200098471034AC42F6D3FFF786FC283C00080A
:10083000483C0008202A04DB203A00FA02F100209C
:1008400070479140C2F1200320FA03F3194390400E
:100850007047202A04DB203A21FA02F00021704779
:1008600021FA02F3D040C2F1200291400843194618
:100870007047202A06DBCB17203A41FA02F043EA00
:10088000E07306E041FA02F3D040C2F12002914049
:1008900008431946704700000FB4002300B589B023
:1008A0000CA900910B996FF00042CB601E4B069390
:1008B0001E4B07930423CDE901321D4A08920246DC
:1008C0006B46002000F02CF909B05DF814FB70B500
:1008D00086B006464FF0FF300091CDE901010020BF
:1008E00015460C4604903246694604A8FFF7D4FF2B
:1008F00002460498211825B108B1084600E02046B8
:100900002860049800280DD0002A02DD0098884253
:1009100008D0081B0094CDE901043246694604A8BA
:10092000FFF7BAFF06B070BD590D0008770D00083B
:10093000EF09000810B5141E73F1000408DA401C1A
:1009400041F1000192185B411A4301D120F00100EE
:1009500010BD2DE9F04D92469B4611B1B1FA81F2DE
:1009600002E0B0FA80F220329046FFF763FF0446BF
:100970000F4640EA0A0041EA0B0153465A46084333
:1009800013D0114653EA010019D0C8F14002504675
:10099000FFF75FFF05460E46504659464246FFF7B1
:1009A00049FF084305D0012004E020463946BDE850
:1009B000F08D0020054346EAE0762C4337430A9841
:1009C0006305E40AA0EB08000022FD0A44EA47544C
:1009D0000A3002D500200146E9E7010510196941F6
:1009E000DDE9084500196941BDE8F04DA2E7C0B254
:1009F0004FF4F05100F006BA2DE9FF4F087883B0AC
:100A00009946FF2805D0491C2D2804D00024002039
:100A100008E000200BE00124F9E700EB800003EB85
:100A20004000491C0B78FF2BF7D104B14042002352
:100A30000293147819461D462D2C01D02B2C04D17D
:100A4000521C2D2C13D000240294AA461478FF2C9B
:100A50000FD00A25A3FB057801FB05814FF0000CA0
:100A600003FB0C11521CE3194AEB0101EEE70124D0
:100A7000EAE7814453EA010002D019F5C87F06DA9B
:100A800003980021C0E9001107B0BDE8F08F0025F0
:100A9000AE4E2F46DFF8B882184600F0DEF9CDE9F9
:100AA0000001B9F1000002DAC9F1000400E00446D7
:100AB0000023A74A1AEB030B42EB045A12E0E007AB
:100AC00007D02A46334638464146FFF78FFD074692
:100AD00088462A46334610461946FFF787FD0546E5
:100AE0000E466410002CEAD1DDE90001B9F1000FD7
:100AF0005A46534606DAFFF7EBFD3A464346FFF700
:100B0000E7FD05E0FFF772FD3A464346FFF76EFD4D
:100B1000029A0AB181F00041039AC2E90001B3E7E9
:100B20002DE9FF4F1F468DB0D7E901464FF0FF3842
:100B30002E2045464FF000090B90B9696D1C0E98A8
:100B40008847396A824688470028F6D1BAF1FF3FC4
:100B50000AD024F4D064002E11DDBAF12B0F08D096
:100B6000BAF12D0F0BD102E0404611B08DE744F4ED
:100B70008064B9696D1C0E9888478246761E694666
:100B8000600501D52D2000E02B208DF8000001F13B
:100B9000010B0DF1200809E0B9696D1C0E9888471A
:100BA00082460F9844F40074761E0560002E02DD24
:100BB000BAF1300FF0D00B998A453ED144F0800451
:100BC00006E00F99681CA9F1010944F4007408605B
:100BD000B9696D1C761E0E98884782463028F0D081
:100BE0002BE00B998A4505D1200603D444F08004FC
:100BF000761E18E0504601F061FD08B30DF11301B7
:100C0000761E44F400748B4508D2AAF130000BF82C
:100C1000010B200607D5A9F1010003E0200602D44C
:100C200009F101008146A00502D50F99681C0860F2
:100C3000B9696D1C0E9888478246002ED1DC53E0BE
:100C4000002E51DDBAF1650F02D0BAF1450F4BD13C
:100C5000A00549D5B9696D1C24F44074761E0E9820
:100C600088478246002E0CDD2B2804D0BAF12D0FC8
:100C700007D144F48074B9696D1C0E988847824688
:100C8000761EE00501D52D2100E02B2108F8011B7F
:100C9000CDF82C8021E00DF12901761E44F400747A
:100CA00088450CD2AAF1300010F0FF0088F800004F
:100CB00002D10B99884509D908F1010806E0E00541
:100CC00001D5244801E042F20F708146B9696D1CDC
:100CD0000E98884782460F980560002E04DD504626
:100CE00001F0ECFC0028D6D1F9690E988847FF2066
:100CF0008BF8000088F800000020069007904B4613
:100D00006A4608A906A8FFF777FEA00502D46FF08F
:100D100001002AE714F0240F0AD0E00714D1DDE91E
:100D200006123868031D3B600068C0E900120BE042
:100D3000DDE9060100F048F80146E00704D1386813
:100D4000021D3A600068016028460EE7000014406A
:100D50000000F03FF1D8FFFF426842B1016811F88E
:100D6000013B23B1521EC0E9001218467047012111
:100D7000C160881E704742685AB1C368016843B9B0
:100D800083688B4205D0491E521CC0E90012002026
:100D900070474FF0FF30704730B5041E71F100040A
:100DA00004DB4FF00044404264EB0101141E73F178
:100DB000000405DB1C464FF00043524263EB040382
:100DC0008B4208BF824230BD01F0004330B421F0B5
:100DD000004150EA010206D00A0DA2F56072C1F38B
:100DE0001301002A02DC30BC00207047440F44EAA3
:100DF000C104C100E01830BC00EBC250FFF718BBC3
:100E0000002070477F2801D9002208E0064A02EB43
:100E10005002C007127800D1120902F00F0201201F
:100E20009040084070470000E83B000870B521F092
:100E3000004303430CD0C1F30A550024D5EB04054D
:100E400064EB0403D617AD1AB34102DB0020014660
:100E500070BD201841EB025170BD0EB540F2334217
:100E600002920022CDE900221346FFF772FD03B083
:100E700000BD000010B594B00120224908703C224A
:100E8000214905A8FFF7BEF9002003900490012432
:100E900005A9052001F026F928E0012002F01EF83E
:100EA0008DF80400022002F019F88DF805000420E6
:100EB00002F014F88DF80600082002F00FF88DF803
:100EC0000700102002F00AF88DF8080000200AE060
:100ED00001A9095C03AA125C914201D0012404E03B
:100EE0000024411CC8B20528F2DB00BF002CD4D17D
:100EF000002001F0F9F9002002490870012014B027
:100F000010BD00002E000020A03B000800BFFEE73F
:100F100010B588B00121480600F070FB01210420C3
:100F200000F08CFB4FF48050ADF81C0018208DF8B9
:100F30001F0003208DF81E0007A9284800F0F7F9CC
:100F40004FF40060ADF81C0048208DF81F0003200E
:100F50008DF81E0007A9214800F0E9F901208DF85D
:100F600017008DF818008DF8190000208DF81A0070
:100F70008DF8160001208DF81B0000208DF812005E
:100F80000420ADF8100000208DF813000D208DF81E
:100F9000140002208DF8150004A9114800F0A6F8ED
:100FA000044601208DF80A0000208DF80B00012076
:100FB0008DF80C000020ADF80000ADF80200ADF88F
:100FC0000400ADF80600ADF8080001208DF80D0012
:100FD000684600F007F8204608B010BD0008014040
:100FE0000064004010B50021837A012202FA03F167
:100FF0003D4A126842F001023B4B1A603A4A1C32E9
:1010000012688A43384B1C331A60027BCAB9364ACD
:101010000C3212688A43344B0C331A604288C388FE
:1010200042EA0343304A4032847A42F8343002883C
:10103000838842EA03432C4A4032847A02EBC4029A
:101040005360027B012A19D1274A0C3212680A43E5
:10105000254B0C331A604288038842EA0343224A34
:101060004032847A42F83430C288838842EA0343AB
:101070001D4A4032847A02EBC4025360C27A3AB904
:10108000194A121D12688A43174B1B1D1A6006E08D
:10109000154A121D12680A43134B1B1D1A60028960
:1010A00032B9114A143212688A430F4B14331A6052
:1010B0000289012A06D10C4A143212680A430A4BEB
:1010C00014331A60427B012A06D1074A1C32126887
:1010D0000A43054B1C331A60034A126822F00102CE
:1010E000014B1A6010BD00000066004030B502469A
:1010F00000200023146824F002041460146844F0F3
:101100000104146000E05B1C546804F001041CB985
:101110004FF6FF74A342F6D1546804F001040CB9F1
:1011200000206CE08C79012C04D1146844F0800418
:10113000146003E0146824F080041460CC79012C5E
:1011400004D1146844F04004146003E0146824F0EF
:10115000400414600C7A012C04D1146844F020047B
:10116000146003E0146824F0200414604C7A012C0D
:1011700004D1146844F01004146003E0146824F0EF
:10118000100414608C7A012C04D1146844F0080413
:10119000146003E0146824F008041460CC7A012C75
:1011A00004D1146844F00404146003E0146824F0CB
:1011B000040414608C78A407CD7844EA05640D79A2
:1011C00044EA05444D7944EA05540D886D1E2C43CC
:1011D000D461146824F001041460002300E05B1C57
:1011E000546804F001041CB14FF6FF74A342F6D119
:1011F000546804F001040CB1002000E0012030BD6F
:1012000010B502460020936803F08063B3F1806F4D
:1012100000D110E0936803F00063B3F1006F01D1D7
:10122000012008E0936803F08053B3F1805F01D19F
:10123000022000E00420042874D002F5C07303EB00
:1012400000131B6803F0010402F5C07303EB0013E5
:101250001C600B7A7BB94B7A0C8843EA445302F545
:10126000C07404EB00142468234302F5C07404EB3B
:101270000014236010E00B7A4C6843EAC4034C7AF4
:10128000234302F5C07404EB00142468234302F5E1
:10129000C07404EB001423608B7A03F00F038B728D
:1012A00002F5C07303EB00135B6823F00F0402F533
:1012B000C07303EB00135C6002F5C07303EB001313
:1012C0005B688C7A234302F5C07404EB00146360FE
:1012D0008B7B1C064B7B44EA03440B7B44EA0323D1
:1012E000CC7A234302F5C07404EB0014A3608B7C1A
:1012F0001C064B7C44EA03440B7C44EA0323CC7B6E
:10130000234302F5C07404EB0014E36002F5C073DC
:1013100003EB00131B6843F0010402F5C07303EBF9
:1013200000131C6010BD70477047704770472DE96F
:10133000F04102460025002600200023002400275B
:1013400091F803C00CF00F0591F803C00CF0100CDD
:10135000BCF1000F03D091F802C04CEA050591F8EA
:1013600000C0BCF1000F31D0146800202BE04FF01A
:10137000010C0CFA00F3B1F800C00CEA03069E421F
:1013800020D183004FF00F0C0CFA03F7BC4305FA91
:1013900003FC4CEA040491F803C0BCF1280F06D109
:1013A0004FF0010C0CFA00FCC2F814C00AE091F8EE
:1013B00003C0BCF1480F05D14FF0010C0CFA00FC42
:1013C000C2F810C0401C0828D1D31460B1F800C086
:1013D000BCF1FF0F34DD546800202EE000F1080C52
:1013E0004FF0010808FA0CF3B1F800C00CEA03064C
:1013F0009E4221D183004FF00F0C0CFA03F7BC433F
:1014000005FA03FC4CEA040491F803C0BCF1280F70
:1014100005D100F1080C08FA0CF8C2F8148091F814
:1014200003C0BCF1480F07D100F1080C4FF00108D0
:1014300008FA0CF8C2F81080401C0828CED354607B
:10144000BDE8F0810246002093680B400BB10120FB
:1014500000E0002070474161704701617047000063
:10146000FEB505460126154A07CA8DE80700009516
:10147000062D0ED2DFE805F00D030507090B012448
:1014800007E0022405E0042403E0082401E010241E
:1014900000BF00BF681E0A49085C18B169460120F8
:1014A00000F020FE03E0204601F018FD0646002E65
:1014B000F9D1284600F018FF0120FEBDDC3B0008F2
:1014C0002F00002000BFFEE710B504210148FFF700
:1014D000C4FF10BD000C014010B504210148FFF706
:1014E000BAFF10BD000C01400BE0FFF7F5FF4FF411
:1014F000FA7002F05BF9FFF7E7FF4FF4FA7002F0C1
:1015000055F9F2E708B50121082000F097F804200A
:10151000ADF8000010208DF8030003208DF80200C4
:1015200069460548FFF703FF0420034910310860AE
:1015300002A000F075FF08BD000C01404C4544209E
:10154000D6B8CABEEFBFBDEFBFBD202020202020EF
:10155000202020202020EFBFBDEFBFBDEFBFBDEF9B
:10156000BFBDEFBFBDEFBFBDEFBFBD5C72000000F0
:1015700000BFFEE77047000070B5002100230F2276
:10158000C47804B3154C246804F4E064C4F5E06442
:10159000210AC1F10403CA40447804FA03F18478B3
:1015A0001440214309010E4C0678A155047804F03B
:1015B0001F050124AC4005786D11AD0005F1E02553
:1015C000C5F8004109E0047804F01F050124AC408F
:1015D000044D0678761145F8264070BD0CED00E00C
:1015E00000E400E080E100E002490143024A1160AA
:1015F000704700000000FA050CED00E029B1064A32
:10160000D2690243044BDA6104E0034AD26982439F
:10161000014BDA61704700000010024029B1064A10
:1016200012690243044B1A6104E0034A12698243BF
:10163000014B1A61704700000010024029B1064AB0
:1016400092690243044B9A6104E0034A926982431F
:10165000014B9A61704700000010024029B1064A10
:10166000D2680243044BDA6004E0034AD268824342
:10167000014BDA60704700000010024030B50021D5
:101680000022002400232D4D6D6805F00C0121B1CE
:10169000042905D0082923D105E0294D056022E061
:1016A000274D05601FE0254D6D6805F47012234D30
:1016B0006D6805F48034022505EB92421CB9214D7A
:1016C000554305600BE01D4D6D6805F400351DB1F7
:1016D0001C4D5543056002E0194D5543056002E07D
:1016E000174D056000BF00BF144D6D6805F0F00197
:1016F0000909154D6B5C0568DD4045600F4D6D684F
:1017000005F4E061090A104D6B5C4568DD408560B9
:101710000A4D6D6805F46051C90A0B4D6B5C456854
:10172000DD40C560054D6D6805F44041890B074DEE
:101730006B5CC568B5FBF3F5056130BD0010024078
:1017400000127A0000093D0034000020440000200F
:1017500001E001F03DFFFCE710B502F00FF90128B0
:1017600001D002F0C1F810BD0CB53D48006840F052
:1017700001003B490860084640683A49084038493A
:1017800048600846406820F4FE0048604FF41F009F
:1017900088600020019000900846006840F4803086
:1017A000086000BF2E48006800F4003000900198E7
:1017B000401C0190009818B90198B0F5A06FF1D1C4
:1017C0002748006800F40030002843D0264800680D
:1017D00040F01000244908600846006820F003002B
:1017E00008600846006840F0020008601C48406835
:1017F0001B4948600846406848600846406840F415
:10180000806048600846406820F47C1048600846C4
:10181000406840F4E81048600846006840F0807076
:10182000086000BF0E48006800F000700028F9D082
:101830000B48406820F003000949486008464068AA
:1018400040F00200486000BF0548406800F00C000E
:101850000828F9D14FF00060044908600CBD000071
:10186000001002400000FFF80020024008ED00E0F8
:1018700010B53048008800F02000A0B12E48008844
:10188000B0F5806F03DB2B48001D008810BD294890
:10189000001D0088C1B2284802880088401C264BE1
:1018A0001880264881542348008800F01000D8B1E1
:1018B00000202349A1F80E0C4FF480621F492148F3
:1018C000FEF7A0FC1C4800881D49A1F80E0C002062
:1018D000194908804FF480611848FEF7ACFC1548A0
:1018E00000881448001D00881248008800F080001D
:1018F000F0B110480C30008800F08000C0B11248F0
:1019000001780078401C104A10701048405C09496A
:10191000091D0880104600780D490978884207D1D2
:1019200004480C30008820F0800002490C31088007
:1019300000BFABE7004C00402A000020E622002058
:10194000D0000020E00C00201B000020E617002043
:101950001C00002010B52C48008800F0200090B139
:101960002A480088B0F5806F02DB2748808810BDC8
:1019700025488088C1B2254802880088401C234B36
:101980001880234881542048008800F01000C0B11E
:101990000021204841824FF480621D491430FEF737
:1019A00031FC1A4801881B484182002017490880F1
:1019B0004FF480611648FEF73EFC13480088124839
:1019C00080881148008800F08000D0B10E488089DE
:1019D00000F08000A8B1104801780078401C0E4A41
:1019E00010700E48405C08498880104600780C4909
:1019F0000978884205D10448808920F08000024996
:101A0000888100BFB3E70000005000402C00002098
:101A1000E6260020D01000201D000020E61800203F
:101A20001E000020F8B5354800784A2837D13348E1
:101A300040783038C0B232490860304CE41C002095
:101A400000906946204601F00DFE2D4988600098FF
:101A5000841C6946204601F005FE0546FEF76BFC36
:101A6000274988800098841C6946204601F0FAFDC9
:101A70000546FEF760FC224988710098441C6946BF
:101A8000204601F0EFFD0546FEF755FC1C490873A2
:101A9000084600F03FFB00201A4908702CE0174868
:101AA0000078462828D11548407830280AD11348B4
:101AB000C0780D2806D1FFF7DDF9E8B10020114903
:101AC000087019E00D484078302815D10B48C078CF
:101AD0004A2811D1094C241D0021204601F0C2FDE5
:101AE0000646FEF728FCC5B22846FFF7B9FC10B140
:101AF00000200449087000BFF8BD0000A4000020C9
:101B0000C00000201400002010B540F225511648F6
:101B100000F034FA012826D114480078C8B91248D8
:101B200000F0CAFA12490870084600781149124AB2
:101B30001278885410480078401C0F4908700C48EF
:101B400000780A2805D101200849087000200A49B8
:101B5000087040F22551044800F0A6F902480088B8
:101B60000148001D008810BD00380140140000200D
:101B700004000020A40000202400002010B586B03E
:101B800004463348806940F4804031498861084602
:101B9000806940F0040088614815ADF81400032006
:101BA0008DF8160018208DF8170005A92948FFF7B1
:101BB000BEFB4FF48060ADF8140004208DF81700D0
:101BC00005A92448FFF7B3FB25208DF8100002205B
:101BD0008DF811008DF8120001208DF8130004A873
:101BE000FFF7CAFC1C4800F07BF900940020ADF818
:101BF0000400ADF80600ADF80800ADF80C000C20AC
:101C0000ADF80A006946144800F0EAF9002240F2F3
:101C10002771114800F0BFF9012240F225510E480A
:101C200000F0B9F901210C4800F04DF94FF60F70A2
:101C3000094908800120094908700020488008A04F
:101C400000F0EEFB14A000F0EBFB06B010BD0000AE
:101C5000001002400008014000380140D000002080
:101C60000D0D0D3D3D3D3D3D3D3D3D3D3D3D20533B
:101C7000544D33324631303320BFAAB7A2B0E5B35A
:101C8000F5CABCBBAFB1A8B8E6203D3D3D3D3D3DEA
:101C90003D3D3D3D3D0D0000555341525431B3F59E
:101CA000CABCBBAFC5E4D6C3202020202020BDD3B2
:101CB000CAD5D6D0B6CFA1A2BFD5CFD0D6D0B6CFB9
:101CC0002C20B7A2CBCDD6D0B6CF0D0005E003486F
:101CD0000078012801D1FFF7A5FEF8E714000020E5
:101CE00010B53048008800F02000A0B12E480088D0
:101CF000B0F5806F03DB2B48001D008810BD29481C
:101D0000001D0088C1B2284802880088401C264B6C
:101D10001880264881542348008800F01000D8B16C
:101D200000202349A1F806044FF480621F4921488E
:101D3000FEF768FA1C4800881D49A1F80604002037
:101D4000194908804FF480611848FEF774FA154865
:101D500000881448001D00881248008800F08000A8
:101D6000F0B110480C30008800F08000C0B112487B
:101D700001780078401C104A10701048405C0949F6
:101D8000091D0880104600780D490978884207D15E
:101D900004480C30008820F0800002490C31088093
:101DA00000BFABE70044004026000020E61A0020F8
:101DB000D0000020D804002017000020E6150020E5
:101DC0001800002010B53048008800F02000A0B1B5
:101DD0002E480088B0F5806F03DB2B48001D00887B
:101DE00010BD2948001D0088C1B22848028800881B
:101DF000401C264B1880264881542348008800F058
:101E00001000D8B100202349A1F80A084FF48062DD
:101E10001F492148FEF7F6F91C4800881D49A1F822
:101E20000A080020194908804FF480611848FEF71D
:101E300002FA154800881448001D008812480088DE
:101E400000F08000F0B110480C30008800F08000F5
:101E5000C0B1124801780078401C104A1070104838
:101E6000405C0949091D0880104600780D49097831
:101E7000884207D104480C30008820F080000249D5
:101E80000C31088000BFABE700480040280000206C
:101E9000E61E0020D0000020DC08002019000020F1
:101EA000E61600201A00002010B50022002340F69C
:101EB0006A14A14200D100BF0A1201249440A3B2C7
:101EC000DC43048010BD21B1828942F4005282813A
:101ED00004E082894DF6FF731A408281704700004A
:101EE00010B504462048844209D101218803FFF738
:101EF000B5FB00214FF48040FFF7B0FB32E01B48F8
:101F0000844209D101214804FFF788FB00214FF4E6
:101F10000030FFF783FB25E01548844209D10121F9
:101F20008804FFF77BFB00214FF48020FFF776FB4E
:101F300018E01048844209D10121C804FFF76EFB64
:101F400000214FF40020FFF769FB0BE00A488442B0
:101F500008D101210805FFF761FB00214FF4801033
:101F6000FFF75CFB10BD000000380140004400405A
:101F700000480040004C0040005000400246002055
:101F8000B1F5007F00D100BF13880B400BB10120D9
:101F900000E000207047F0B503460024002600252D
:101FA000002040F66A17B94200D100BF1846C1F3BD
:101FB000421401F01F06012707FA06F5012C01D192
:101FC0000C3004E0022C01D1103000E014301AB1C2
:101FD00007682F43076002E00768AF430760F0BD62
:101FE0002DE9F04786B005460E460024A24600BF04
:101FF000A1460027B08900B100BF2F462C8A4CF6BD
:10200000FF700440F08804432C82AC894EF6F31034
:102010000440B08831890843718908430443AC8186
:10202000AC8A4FF6FF400440B0890443AC8201A85B
:10203000FFF724FB1F48874202D1DDF810A001E022
:10204000DDF80CA0A88900F4004040B10AEBCA00FA
:1020500000EB0A1031684900B0FBF1F807E00AEB29
:10206000CA0000EB0A1031688900B0FBF1F8642067
:10207000B8FBF0F004012009642101FB1089A88954
:1020800000F4004040B1322000EBC900B0FBF1F099
:1020900000F00700044308E0322000EB091064213F
:1020A000B0FBF1F000F00F0004432C8106B0BDE856
:1020B000F08700000038014001468888C0F308001E
:1020C000704700BFFEE710B5FEF722FF044620462A
:1020D00010BD00EB8001C802002100E0491C8142D4
:1020E000FCD3704770B505460C46002600BF08E0DB
:1020F000204600F02DF90C340A2000F0ABFE701CD5
:10210000C6B2AE42F4DB0421014800F067FF70BDA7
:10211000000000202DE9F04F87B004464FF0000981
:10212000002500260027AA46206807283BD2DFE8C2
:1021300000F03A040D17212B3100DFF87C91A088C4
:102140003221484385B2002601272CE04FF4FA39AA
:10215000A08800EB80004004050C0026012722E047
:102160004FF4FA39A08800EB80004004050C0126EA
:10217000002718E04FF4FA39A08800EB80004004F3
:10218000050C012600270EE04FF44859A5880026CB
:10219000012708E04FF4AF39A088C0EBC00085B23A
:1021A0000026012700BF00BF40F6B830854200DDA1
:1021B00005460021A068FEF7D3F801D2BA4600E038
:1021C000B2464846FEF7B2F802903C49A068FEF7D6
:1021D0006FF801900299FEF739F88346FEF7ABF8E5
:1021E00080460020039004900590069020788DF89A
:1021F0000C00FD208DF80D008DF80EA028128DF832
:102200000F00E8B28DF81000A0798DF811004FEAA8
:1022100018608DF812004FEA18408DF813004FEA4D
:1022200018208DF8140008F0FF008DF81500207BB1
:102230008DF81600607B8DF817006B208DF8180064
:102240009DF80C00401E1E49085C28B9BA4503D110
:102250001CA000F0E5F82CE09DF80C00401E184989
:10226000085C50B9B24508D11A49A068FEF778F861
:1022700003D219A000F0D4F81BE09DF80C00401E1A
:102280000F49085C88B9B2450FD11249A068FEF722
:1022900071F80AD80D2103A800F0A0FE01219DF8D5
:1022A0000C00401E064A115403E00D2103A800F063
:1022B00095FE07B0BDE8F08F00C409000000B443EC
:1022C0002F000020737461747573206572726F72D1
:1022D0000D0000000000A040616E676C6520657213
:1022E000726F720D000000001FB5044600200090C0
:1022F000019002900390E0B28DF800000A208DF862
:1023000001006D208DF802006B208DF80300042180
:10231000684600F063FE1FBD7FB504460D460020F1
:102320000090019002900390E0B28DF80000FE2032
:102330008DF8010098208DF802008DF803506B2075
:102340008DF804000521684600F048FE06467FBD72
:102350002DE9FF4104460020009001900290039077
:10236000206807283AD2DFE800F039040C17222D44
:102370003000207A32214843C6B2E088484385B213
:102380002CE0207A00EB80004006060EE08800EB8F
:1023900080004004050C21E0207A00EB800040061C
:1023A000060EE08800EB80004004050C16E0207A61
:1023B00000EB80004006060EE08800EB8000400441
:1023C000050C0BE0267AE58808E0207AC0EBC00017
:1023D000C6B2E088C0EBC00085B200BF00BF207865
:1023E0008DF80000F6208DF8010020798DF80200AC
:1023F00028128DF80300E8B28DF804008DF805600E
:10240000607A8DF806006B208DF807000821684679
:1024100000F0E4FD0746384604B0BDE8F081000056
:102420000FB4054B10B503A9044A029800F04EF909
:1024300010BC5DF814FB0000692E0008200000208D
:1024400010B50446D1E9000100F002F8206010BD8B
:10245000F8B504460D466A4600F014FD00987E303B
:10246000009000281EDC0022134620462946FEF775
:1024700093FC17D0002140F60800FEF7C1FC064689
:1024800020462946FEF7A0FC044640F6080006EA6E
:102490000001FEF7B5FC34F0004004BF022000F05C
:1024A00045F829E00098FF2828DB00210846FEF7C0
:1024B000A7FC00F440060022134620462946FEF7FA
:1024C0008FF98CBF00250125022000F02FF84FF076
:1024D000FF4446B1002D0CBF4FF400004FF48000C4
:1024E000B04218BF084C04210846FEF789FC002DB5
:1024F00004BF84F00040F8BD2046F8BD20462946C0
:10250000BDE8F840FEF760BCFFFF7F7F02E008C82F
:10251000121F08C1002AFAD170477047002001E05D
:1025200001C1121F002AFBD1704700000149086059
:1025300070470000A00000202DE9FF5F82B000215D
:10254000DDE90430020DDDF840B0034318D044F655
:102550001050A2F2FF3242431514119801281FD0E7
:10256000A5EB0B00401C5FEA000A4FF000064E4F3F
:10257000DFF83891B046504615D5CAF1000413E093
:10258000119801244AA3012801D16FEA0B01029896
:10259000119AC0E90031C0E9024206B0BDE8F09FDF
:1025A000CBF10000DFE704460021404A491842EB26
:1025B0000450CDE9001012E0E00707D032463B4658
:1025C00040464946FEF712F88046894632463B4669
:1025D00010461946FEF70AF806460F466410002C0E
:1025E000EAD1DDE90401DDE90023BAF1000F06DAE2
:1025F000FDF7FCFF42464B46FDF7F8FF05E0FEF70E
:1026000067F842464B46FEF763F804460E46002242
:10261000284BFEF7E5F803D84FF0FF30014607E0FE
:102620000022254B20463146FDF739FFFEF7BFF863
:10263000102409E0002C0ADB0A220023FDF7BAFE71
:10264000039B30321A55641E50EA0102F2D1641C19
:10265000039AC4F111031444119A012A03D00122F0
:1026600008430DD10AE0084304D000204FF0110BBD
:10267000119072E7A3EB0B056D1E0DE05B4504DDC9
:102680004FF0000205F1010504E003DA4FF000020B
:10269000A5F10105002AECD002981199C0E9023198
:1026A000C0E9004579E70000000014400000F03F59
:1026B000300000000000F0430000E03F30380A28FE
:1026C00001D2012070470020704700002DE9FF4F24
:1026D00095B09A46884606460025EEE1252877D132
:1026E00000242746F94A0121039400E0044316F828
:1026F000013F203B01FA03F01042F7D130782A283D
:1027000011D06FF02F033078A0F13002092A16D8CB
:10271000039A44F0020402EB820203EB42021044EB
:10272000761C0390EFE758F8042B0392002A03DA93
:10273000504244F40054039044F00204761C307874
:102740002E2816D116F8010F44F004042A280DD0C3
:102750006FF02F023078A0F13003092B09D807EB76
:10276000870302EB4303C718761CF3E758F8047B92
:10277000761C30786C280FD006DC4C2817D06828DF
:102780000DD06A2814D104E0742810D07A280FD113
:102790000DE044F400140AE044F4801401E044F431
:1027A00040147278824202D104F58014761C761CA3
:1027B000307866280BD013DC582877D009DC002845
:1027C00075D04528F6D04628F4D047281AD193E191
:1027D00018E0632835D0642879D0652812D18BE1C0
:1027E000702873D008DC6728F1D069286FD06E2874
:1027F0000DD06F2806D1ACE073282CD0752874D08A
:10280000782853D05246179990476D1C54E1C4F371
:102810000250022809D003280DD0D8F8001004284F
:102820000DD00D6008F1040846E1D8F80010EA1751
:10283000C1E90052F6E7D8F800100D80F2E70D70FC
:10284000F0E718F8041B8DF8001000208DF8010047
:10285000EB46012003E058F804BB4FF0FF3061075E
:102860004FF0000102D40DE009F101018946B9429F
:102870000FDA8145F8DB1BF809100029F4D108E0D4
:1028800009F1010189468142FADB1BF80910002990
:10289000F6D103985346A0EB090721463846179A0C
:1028A00000F080FA284400EB090507E044E008E165
:1028B0000DE01BF8010B524617999047B9F1010939
:1028C000F7D2534621463846179AF2E039E00A21FA
:1028D000C4F302524FF0000B0091022A06D058F8C0
:1028E000040BC117032A09D00AE023E008F107000E
:1028F00020F00702F2E80201904605E000B2C1179D
:10290000042A01D140B2C117002906DA0A46002183
:10291000404261EB02012D2202E0220504D52B2268
:102920008DF80420012203E0E20701D02022F7E71E
:10293000914657E00A2100E010214FF0000B009172
:102940000BE010214FF0000B44F004040827009125
:1029500003E008204FF0000B0090C4F30252022A5B
:1029600005D058F8040B0021032A08D008E008F12C
:10297000070020F00702F2E80201904603E080B26F
:10298000042A00D1C0B24FF0000922072AD53278BC
:10299000702A07D0DDF800C08CF0100C5CEA0B0C3C
:1029A00005D00EE040228DF80420012208E050EA14
:1029B000010306D030238DF804308DF80520022263
:1029C0009146009B83F0080353EA0B030AD150EAB7
:1029D000010201D1620705D530228DF804204FF0A5
:1029E00001097F1E3278582A04D039A20C920CAA11
:1029F00002920BE03BA2F9E75B46009AFDF7DAFC96
:102A00000C9B9B5C029A521E0292137050EA0102C8
:102A1000F2D1029804A9081A00F1200B600702D530
:102A200024F4803400E001275F4502DDA7EB0B00B2
:102A300000E0002000EB0B01009003984944401A8D
:102A40000390E00306D453462146179A039800F0FA
:102A5000A9F90544002706E001A85246C05D179970
:102A600090476D1C7F1C4F45F6DBE0030CD55346A9
:102A70002146179A039800F095F9054404E03020A8
:102A80005246179990476D1C0099481E00900029E6
:102A9000F5DC08E00298029952460078491C029140
:102AA000179990476D1CBBF10001ABF1010BF1DCF4
:102AB0005BE100F065F90544761C307800287FF46E
:102AC0000DAE19B02846BDE8F08F000009280100BE
:102AD0003031323334353637383961626364656694
:102AE0000000000030313233343536373839414256
:102AF0004344454600000000600700D4062708F163
:102B0000070020F00700F0E80223804603F0004CA5
:102B10005FEA0C0001D097A009E0200501D596A03E
:102B200005E0E00701D095A001E0AFF24C00139062
:102B3000307823F0004365280CD006DC452809D006
:102B400046281DD047287FD13BE0662818D067284B
:102B50007AD136E00021112F01DB112000E0781C32
:102B6000CDE9000104A90CA8FFF7E6FCDDE90D01A1
:102B70000C9A4FF0000B07F10109109200914EE002
:102B80004FF000400097CDE9011004A90CA8FFF711
:102B9000D3FCDDE90D020C9B0F994FF0000B914621
:102BA0001093009211B9791C00EB0109B7EB0900F1
:102BB00003D4C0F1FF3B07F10109A9EB0700019025
:102BC00042E0012F00DA01270021112F01DD112041
:102BD00000E03846CDE9000104A90CA8FFF7ACFCE1
:102BE000DDE90D010C9A00914FF0000BB9461092EF
:102BF00021070FD4009A4A4503DA914601E0A9F172
:102C00000109B9F1010F05DD109AA9F10101515C2B
:102C10003029F4D0B84202DA10F1040F03DA0121AE
:102C2000CDE9011010E0002803DC8344A9EB00018A
:102C300002E0411C494500DD8946A0EB0B00401C29
:102C400001904FF000400290200705D401984845BC
:102C500002DB4FF0FF30019000208DF84B0002980E
:102C60000DF14B07B0F1004F25D002200C902B2026
:102C70000D90029800280CDA404202902D200D9011
:102C800007E00A210298FDF77FFB3031029007F838
:102C9000011D0C99481E0C900029F2DC02980028B6
:102CA000EFD1791E0D980870307800F0200040F0C8
:102CB000450007F8020D11A8C01BC01D0290139813
:102CC000007800B1012000EB0901019801EBE071EF
:102CD000029801440398401A401E0390E00306D472
:102CE00053462146179A039800F05CF80544139860
:102CF000007818B15246179990476D1CE00323D510
:102D000053462146179A039800F04CF805441BE0FF
:102D1000BBF1000F07DB0098584504DD10981799A8
:102D200010F80B0001E017993020524690470198A7
:102D30000BF1010B401E05F10105019004D12E207D
:102D40005246179990476D1CB9F10001A9F101098C
:102D5000DEDC05E017F8010B5246179990476D1C11
:102D60000299481E02900029F4DC53462146179A26
:102D700003989EE62D0000002B00000020000000BC
:102D80002DE9F041044600251E461746880404D468
:102D900005E039462020B0476D1C641EF9D5284651
:102DA000BDE8F0812DE9F041044600251E4690461D
:102DB000C80301D5302700E02027880404D505E0AA
:102DC00041463846B0476D1C641EF9D52846BDE81B
:102DD000F08100001CB5104804210023CA01CDE990
:102DE00000100EA1104800F099FD104804210023A6
:102DF000CA01CDE900100EA1104800F08FFD104867
:102E0000042100238022CDE900100EA1104800F01B
:102E100085FD00F0E5FC1CBD0800002053746F70B8
:102E20005F5461736B000000511700080C00002014
:102E30005553415254315F5461736B00CD1C0008EF
:102E4000100000204C45445F5461736B000000008B
:102E5000E914000800EB8001C802002100E0491CD1
:102E60008142FCD37047000000BF054A128802F07F
:102E70004002002AF9D0C2B2014B1B1D1A807047D4
:102E80000038014010B5144600222260114A21F09A
:102E900000439342A8BF10BD53EA000208BF10BD13
:102EA000B3F5801FA8BF226807DA3622FDF7BEFF00
:102EB0006FF0350221F000432260DFF81CC06FF391
:102EC0001E510CEB23531A4441F0FF5141F00051C5
:102ED000226010BD0000F07F02FCFFFF10B5044629
:102EE000204600F053F800284BD1042C22D004DCFB
:102EF000012C07D0022C41D110E0082C26D0102C38
:102F00003CD12FE020480078012806D00021012084
:102F1000FFF702FA01201C4908702FE01A48407898
:102F2000012806D000210220FFF7F6F901201649FA
:102F3000487023E014488078012806D0002103203F
:102F4000FFF7EAF901201049887017E00E48C078B1
:102F5000012806D000210420FFF7DEF901200A49EC
:102F6000C8700BE008480079012806D00021052030
:102F7000FFF7D2F901200449087100BF00BF00200B
:102F800010BD0120FCE700002F00002010B5044612
:102F900021460248FEF756FA10BD0000001001401D
:102FA00008B501211020FEF749FB48208DF80300E9
:102FB00040F21F20ADF8000003208DF802006946A2
:102FC0000148FEF7B4F908BD0010014010B500F04B
:102FD0005BF8FFF7FFFE002010BD00002DE9F04771
:102FE00086B0064688460024A14600270025A24652
:102FF000A8F10200C0B281463FE004208DF80C0029
:103000000020019030784AEA0020029000208DF8DC
:103010000D0070788DF80F00A9EB0400C7B2082FDF
:1030200012DA002509E0A01C325C0DF10F00691CCA
:103030004254601CC4B2681CC5B2BD42F3DB781CAC
:10304000C0B28DF80E0010E0002509E0A01C325C33
:103050000DF10F00691C4254681CC5B2601CC4B25B
:10306000072DF3DB08208DF80E0001A90548FEF7B7
:10307000C7F80AF10100C0B282464C45BDDB06B07C
:10308000BDE8F0870064004010B54FF44070FEF7D3
:10309000ABFA01210846FEF7D1FA0D48406840F02E
:1030A00000700B4948604FF4E130FEF767FDFEF712
:1030B00029FA0848006840F0040006490860FFF754
:1030C0006FFFFFF700F84FF47A70FFF702F810BDBA
:1030D00000000140100C01402DE9F04105460E466C
:1030E0001C4807681C480068001D00F0C5FA50B96C
:1030F0001948006890F82C10012088401749096889
:10310000814316480160681C38B936B1124801681D
:10311000091D134800F0EEFA1AE07C190E48006809
:103120004460BC4207D20C480168091D0D48006884
:1031300000F0C6FA0CE008480168091D0A4800685A
:1031400000F0BEFA09480068844201D207480460D2
:10315000BDE8F0815C0000204800002060000020F5
:10316000B82D0020500000204C00002078000020E6
:1031700010B5044600F0CAFA23480068401C2249F2
:1031800008602248006840B920480460084600688A
:1031900001280DD100F014F90AE01D48006838B983
:1031A0001A480068C06AE16A884201D8174804607A
:1031B00018480068401C1749086094F82C1001203A
:1031C000884015490968084313490860E16A01EB22
:1031D0008101124A02EB8100211D00F08BFA00F000
:1031E000A7FA0B48006868B108480068C06AE16A3D
:1031F000884207D24FF0805009490860BFF34F8FD3
:10320000BFF36F8F10BD0000580000204800002061
:10321000640000207400002060000020E82A0020E4
:1032200004ED00E070B523E000F00CFB13480068EB
:1032300008B9012000E00020054600F03DFCBDB9C2
:1032400000F064FA0D48C068C468201D00F014FA4C
:103250000B480068401E0A4908600A480068401E82
:103260000849086000F064FA204600F00DF800BF3D
:10327000044800680028D7D170BD0000A42D0020AC
:10328000580000205400002010B50446206B00F0C8
:103290005FFA204600F05CFA10BD000030B54FF434
:1032A0008843174800F007042CB1C01D20F0070028
:1032B000134C041B1B1B0246124C22600024114DB0
:1032C0006C60D018083820F007000F4C20600024F4
:1032D0000D4D2D686C600C4D2D682C601146441A04
:1032E0004C60094C24680C60084D4C682C60084DFB
:1032F0004C682C604FF00044064D2C6030BD00003F
:10330000CC2D0020840000208C00002094000020A0
:10331000900000209800002000BFFFF783FF0648C0
:1033200000680128F9D94FF0805004490860BFF3C4
:103330004F8FBFF36F8FF0E7E82A002004ED00E025
:103340002DE9FF5F80460E469146DDE90E7A109C1E
:10335000A9F10100216B01EB800B2BF0070B00257D
:1033600007E0715D04F134004155705D00B902E081
:103370006D1C102DF5D300BF002143200155202FD7
:1033800000D31F27E762201D00F097F904F1180011
:1033900000F093F92461C7F12000A061646200206D
:1033A000606484F8480041465846039A00F0FEF8ED
:1033B0002060BAF1000F01D0CAF80040BDE8FF9FBD
:1033C00010B5002407E004EB84010F4A02EB8100F2
:1033D00000F066F9641C202CF5D30C4800F060F96D
:1033E0000B4800F05DF90B4800F05AF90A4800F06C
:1033F00057F90A4800F054F904480949086004489C
:103400000849086010BD0000E82A0020682D00204F
:103410007C2D0020902D0020A42D0020B82D002010
:103420004C0000205000002010B50146164800E076
:10343000006803688B42FBD30246436813448B4207
:1034400004D143684C682344436001460A464B68F4
:1034500013440468A34211D10C4C03682468A342AE
:1034600008D04B680468646823444B6003681B6899
:103470000B6005E0054B1B680B6001E003680B6007
:10348000884200D0016010BD840000208C00002024
:103490000A490968096809B9012100E0002121B140
:1034A0004FF0FF31064A116006E004490968C96817
:1034B000C868034A41681160704700004C00002052
:1034C0007800002000BF502080F31188BFF34F8F99
:1034D000BFF36F8F00BF00BFFEE700002DE9F04192
:1034E00005464FF0000800F0ADF92B48006808B918
:1034F000FFF7D4FE294800682840002847D145B18D
:10350000083505F0070020B105F00700C0F10800FC
:103510000544002D3BD022480068854237D8214E13
:103520003046046801E0264624686068A84202D25A
:1035300020680028F7D118480068844227D03068F6
:1035400000F10808206830606068401B102807D927
:1035500067196068401B786065603846FFF764FF54
:103560000F4960680968081A0D4908600846006834
:103570000D490968884203D2094800680A49086071
:10358000064960680968084360600020206000F018
:1035900093FA4046BDE8F0818C000020980000209E
:1035A000900000208400002094000020001F4FF0B5
:1035B00080730360001F21F001030360001F034BB1
:1035C000036014380260203870470000C5340008DA
:1035D0001CB52048007800283AD101241EA103C957
:1035E000CDE900010120FFF7D1FC8DF80000022099
:1035F000FFF7CCFC8DF801000420FFF7C7FC8DF825
:1036000002000820FFF7C2FC8DF803001020FFF72E
:10361000BDFC8DF8040018E0601E1DF8000090B994
:10362000601E0F49085C01280DD100212046FEF7DD
:1036300073FE0021601E0A4A11540120FEF749FD65
:103640002046FEF751FE601CC4B2052CE4DD00BF2D
:103650001CBD00002E00002001010101010000003E
:103660002F00002008B50A46002100910146684657
:10367000FCF7D1FE009808BD01460A69D1E9013086
:103680009860D1E9010358605068884201D1886888
:103690005060002008611068401E1060106870477C
:1036A00000F1080141604FF0FF31816000F1080135
:1036B000C160016100210160704700210161704714
:1036C00010B502460B685C1C0CB9106907E002F1EA
:1036D000080000E04068446824689C42FAD94468C5
:1036E0004C604C68A160886041600A611468641C89
:1036F000146010BD42684A6093688B60936859609B
:103700009160086103685B1C0360704700BF502034
:1037100080F31188BFF34F8FBFF36F8F00BF034853
:103720000068401C01490860704700009C000020B0
:1037300006480068401E054908600846006820B930
:10374000002080F3118800BF00BF70479C0000205C
:1037500070B506463546D6B1083D2C460C49606822
:103760000968084098B1206888B909496068096803
:103770008843606000F066F806496068096808449C
:10378000044908602046FFF74FFE00F095F970BD30
:10379000980000209000002003484FF0E02148618D
:1037A00007200861704700003F19010070B504460A
:1037B000002544B100F046F800212046FFF78CFCBC
:1037C00000F07AF905463DB94FF080500349086092
:1037D000BFF34F8FBFF36F8F70BD000004ED00E0AB
:1037E0001CB5114800210B468022CDE900100FA125
:1037F000104800F093F80446012C14D100BF50206B
:1038000080F31188BFF34F8FBFF36F8F00BF4FF06E
:10381000FF30094908600120084908600020084974
:10382000086000F047F81CBD7C00002049444C456E
:103830000000000019330008780000206400002018
:103840005C00002002480068401C01490860704785
:10385000800000201248006818B10120114908605A
:103860001DE000200F4908600F480068B0FA80F0A2
:10387000C0F11F0101EB81020C4B03EB8200426897
:103880005268426000F108024368934202D14268E4
:10389000526842604268D268054B1A6000BF7047A8
:1038A000800000206C00002060000020E82A00203A
:1038B0004800002010B50A48006840F4700008492C
:1038C00008600846006840F070400860FFF764FF39
:1038D000002004490860FCF749FC002010BD0000EE
:1038E00020ED00E09C00002010B500BF502080F3C8
:1038F0001188BFF34F8FBFF36F8F00BF00F04EF8FA
:1039000018B14FF080500449086000BF002080F3D8
:10391000118800BF10BD000004ED00E02DE9FF4F4D
:1039200085B0804689461746DDE912ABB800FFF73F
:10393000D5FD064656B14C20FFF7D0FD04460CB12C
:10394000266304E03046FFF703FF00E000247CB16B
:103950000020CDE900ABCDE902403A464946404659
:10396000089BFFF7EDFC2046FFF702FC012501E074
:103970004FF0FF35284609B0BDE8F08F05490968CA
:1039800009B9012005E00449096809B9022000E0ED
:103990000020704764000020800000202DE9F041E5
:1039A00000273A480068002863D139480068451C60
:1039B000374805608DB93748D0F800803648006830
:1039C000344908603448C0F8008034480068401C1E
:1039D00032490860FFF75CFD00BF3148006885424E
:1039E0003BD300BF2B480068006808B9012000E005
:1039F000002020B14FF0FF30294908602CE0254815
:103A00000068C068C4686668B54202D2244806608F
:103A100022E0201DFFF730FEA06A18B104F1180063
:103A2000FFF72AFE94F82C10012088401D490968F0
:103A300008431C490860E16A01EB81011A4A02EB64
:103A40008100211DFFF756FE1849E06A0968C96A1E
:103A50008842C7D30127C5E700BF14480068C06A81
:103A600000EB8000104951F82000012800D90127FF
:103A700004E00F480068401C0D4908600D480068CC
:103A800000B101273846BDE8F08100008000002029
:103A90005C0000204C00002050000020700000203E
:103AA0007800002060000020E82A00204800002064
:103AB000680000206C00002070B500240026FFF78D
:103AC00025FE2E480068401E2C4908600846006804
:103AD00000284FD12A48006800284BD024E029480C
:103AE000C068C46804F11800FFF7C6FD201DFFF789
:103AF000C3FD94F82C10012088402349096808432D
:103B000021490860E16A01EB8101204A02EB810052
:103B1000211DFFF7EFFD1E49E06A0968C96A884266
:103B200002D301201B4908601648006808B901202B
:103B300000E000200028D2D00CB1FFF7A9FC164805
:103B4000056865B100BFFFF729FF10B101201149D9
:103B500008606D1E002DF6D100200F4908600D4849
:103B6000006838B1012630070C490860BFF34F8F59
:103B7000BFF36F8FFFF7DCFD304670BD8000002083
:103B800058000020902D002060000020E82A00202E
:103B9000480000206C0000206800002004ED00E0D8
:103BA0000100000001000A000A01000002000000FC
:103BB00001000A000A0100000300000000000A00E2
:103BC0000A0100000400000001000A000A010000D0
:103BD0000500000001000A000A01000000000000CA
:103BE00001001E000A010000DDDDDDDDDCBBBBDD08
:103BF000DDDDDDDDDDDDDDDD98888888888888888D
:103C000077777777778888888555555666666666AC
:103C1000666666666668888883333332222222228B
:103C2000222222222228888D483C00080000002001
:103C3000A40000000C250008EC3C0008A4000020B3
:103C40002C7500001C25000800FF666B00000000BA
:103C50000000000000000000000000000000000064
:103C60000000000000000000000000000000000054
:103C7000000000000000000101010101000000003F
:103C800001020304010203040607080902040608EE
:103C90000000000000000000000000000000000024
:103CA0000000000000000000000000000000000014
:103CB0000000000000000000000000000000000004
:103CC00000000000000000000000000000000000F4
:103CD00000000000000000000000000000000000E4
:0C3CE00000000000AAAAAAAA0000000030
:0400000508000131BD
:00000001FF
